{
  "contractName": "Credit",
  "abi": [
    {
      "inputs": [
        {
          "name": "_borrower",
          "type": "address"
        },
        {
          "name": "_lender",
          "type": "address"
        },
        {
          "name": "_amount",
          "type": "uint256"
        },
        {
          "name": "_interest",
          "type": "uint256"
        },
        {
          "name": "_dateCreated",
          "type": "uint256"
        },
        {
          "name": "_repaymentDate",
          "type": "uint256"
        }
      ],
      "payable": false,
      "stateMutability": "nonpayable",
      "type": "constructor"
    },
    {
      "constant": true,
      "inputs": [],
      "name": "getBorrower",
      "outputs": [
        {
          "name": "",
          "type": "address"
        }
      ],
      "payable": false,
      "stateMutability": "view",
      "type": "function"
    },
    {
      "constant": true,
      "inputs": [],
      "name": "getLender",
      "outputs": [
        {
          "name": "",
          "type": "address"
        }
      ],
      "payable": false,
      "stateMutability": "view",
      "type": "function"
    },
    {
      "constant": true,
      "inputs": [],
      "name": "getAmount",
      "outputs": [
        {
          "name": "",
          "type": "uint256"
        }
      ],
      "payable": false,
      "stateMutability": "view",
      "type": "function"
    }
  ],
  "bytecode": "0x60806040526000600660006101000a81548160ff02191690831515021790555034801561002b57600080fd5b5060405160c0806102fe833981018060405260c081101561004b57600080fd5b81019080805190602001909291908051906020019092919080519060200190929190805190602001909291908051906020019092919080519060200190929190505050856000806101000a81548173ffffffffffffffffffffffffffffffffffffffff021916908373ffffffffffffffffffffffffffffffffffffffff16021790555084600160006101000a81548173ffffffffffffffffffffffffffffffffffffffff021916908373ffffffffffffffffffffffffffffffffffffffff160217905550836002819055508260038190555081600481905550806005819055505050505050506101be806101406000396000f3fe608060405260043610610057576000357c0100000000000000000000000000000000000000000000000000000000900463ffffffff1680631cb0c3e71461005c5780639861f3e5146100b3578063d321fe291461010a575b600080fd5b34801561006857600080fd5b50610071610135565b604051808273ffffffffffffffffffffffffffffffffffffffff1673ffffffffffffffffffffffffffffffffffffffff16815260200191505060405180910390f35b3480156100bf57600080fd5b506100c861015e565b604051808273ffffffffffffffffffffffffffffffffffffffff1673ffffffffffffffffffffffffffffffffffffffff16815260200191505060405180910390f35b34801561011657600080fd5b5061011f610188565b6040518082815260200191505060405180910390f35b60008060009054906101000a900473ffffffffffffffffffffffffffffffffffffffff16905090565b6000600160009054906101000a900473ffffffffffffffffffffffffffffffffffffffff16905090565b600060025490509056fea165627a7a72305820244a56666c82ec8a021fa01c4b5e1e19544aa7a0941d60214c36487f9862766f0029",
  "source": "pragma solidity >=0.4.22 <0.9.0;\n\n// each credit contract is created uniquely for each user\ncontract Credit {\n    address borrower;\n    address lender;\n    uint256 amount;\n    uint256 interest;\n    uint dateCreated;\n    uint repaymentDate;\n\n    // when repaid this contract will be terminated\n    bool repaid = false;\n\n    constructor(\n        address _borrower,\n        address _lender,\n        uint256 _amount,\n        uint256 _interest,\n        uint _dateCreated,\n        uint _repaymentDate \n    ) public {\n        borrower = _borrower;\n        lender = _lender;\n        amount = _amount;\n        interest = _interest;\n        dateCreated = _dateCreated;\n        repaymentDate = _repaymentDate;\n    }\n\n    function getBorrower() public view returns(address) {\n        return borrower;\n    }\n\n    function getLender() public view returns(address) {\n        return lender;\n    }\n\n    function getAmount() public view returns(uint256) {\n        return amount;\n    }\n\n}\n",
  "sourcePath": "/Users/palaashkolhe/VSCode Projects/DeFi Lending and Borrowing/solidity-server/contracts/Credit.sol",
  "compiler": {
    "name": "solc",
    "version": "0.5.0+commit.1d4f565a.Emscripten.clang"
  },
  "schemaVersion": "3.0.1",
  "updatedAt": "2022-12-02T04:31:37.757Z",
  "devdoc": {
    "methods": {}
  },
  "userdoc": {
    "methods": {}
  }
}