{
  "contractName": "Exchange",
  "abi": [
    {
      "inputs": [],
      "payable": false,
      "stateMutability": "nonpayable",
      "type": "constructor",
      "signature": "constructor"
    },
    {
      "anonymous": false,
      "inputs": [
        {
          "indexed": false,
          "name": "_address",
          "type": "address"
        },
        {
          "indexed": false,
          "name": "balance",
          "type": "uint256"
        },
        {
          "indexed": false,
          "name": "hasCredit",
          "type": "bool"
        }
      ],
      "name": "UserCreated",
      "type": "event",
      "signature": "0x168d1dc6cbc5a8412ac5349daf96c1b6f5f68e47a5a3c0d0a6d35666e109147c"
    },
    {
      "anonymous": false,
      "inputs": [
        {
          "indexed": false,
          "name": "borrower",
          "type": "address"
        },
        {
          "indexed": false,
          "name": "lender",
          "type": "address"
        },
        {
          "indexed": false,
          "name": "amt",
          "type": "uint256"
        }
      ],
      "name": "LogTransfer",
      "type": "event",
      "signature": "0x0a85107a334eae0d22d21cdf13af0f8e8125039ec60baaa843d2c4c5b0680174"
    },
    {
      "anonymous": false,
      "inputs": [
        {
          "indexed": false,
          "name": "borrower",
          "type": "address"
        },
        {
          "indexed": false,
          "name": "lender",
          "type": "address"
        },
        {
          "indexed": false,
          "name": "amount",
          "type": "uint256"
        },
        {
          "indexed": false,
          "name": "interest",
          "type": "uint256"
        },
        {
          "indexed": false,
          "name": "dateCreated",
          "type": "uint256"
        }
      ],
      "name": "CreditCreated",
      "type": "event",
      "signature": "0x38f6fd01ae8c8efcf8722b2c621f449c460264ae1f86d2b159dec70cac1a3ab2"
    },
    {
      "constant": false,
      "inputs": [
        {
          "name": "_balance",
          "type": "uint256"
        },
        {
          "name": "_address",
          "type": "address"
        }
      ],
      "name": "createUser",
      "outputs": [],
      "payable": false,
      "stateMutability": "nonpayable",
      "type": "function",
      "signature": "0xb854b00f"
    },
    {
      "constant": false,
      "inputs": [
        {
          "name": "_balance",
          "type": "uint256"
        }
      ],
      "name": "createUser",
      "outputs": [],
      "payable": false,
      "stateMutability": "nonpayable",
      "type": "function",
      "signature": "0xffbdff66"
    },
    {
      "constant": false,
      "inputs": [
        {
          "name": "borrower",
          "type": "address"
        },
        {
          "name": "lender",
          "type": "address"
        },
        {
          "name": "amount",
          "type": "uint256"
        },
        {
          "name": "interest",
          "type": "uint256"
        },
        {
          "name": "repaymentDate",
          "type": "uint256"
        }
      ],
      "name": "createCredit",
      "outputs": [],
      "payable": false,
      "stateMutability": "nonpayable",
      "type": "function",
      "signature": "0x9881086b"
    },
    {
      "constant": false,
      "inputs": [
        {
          "name": "borrower",
          "type": "address"
        },
        {
          "name": "lender",
          "type": "address"
        }
      ],
      "name": "repay",
      "outputs": [],
      "payable": false,
      "stateMutability": "nonpayable",
      "type": "function",
      "signature": "0x6ed671e8"
    }
  ],
  "bytecode": "0x608060405234801561001057600080fd5b50611563806100206000396000f3fe608060405260043610610062576000357c0100000000000000000000000000000000000000000000000000000000900463ffffffff1680636ed671e8146100675780639881086b146100d8578063b854b00f14610167578063ffbdff66146101c2575b600080fd5b34801561007357600080fd5b506100d66004803603604081101561008a57600080fd5b81019080803573ffffffffffffffffffffffffffffffffffffffff169060200190929190803573ffffffffffffffffffffffffffffffffffffffff1690602001909291905050506101fd565b005b3480156100e457600080fd5b50610165600480360360a08110156100fb57600080fd5b81019080803573ffffffffffffffffffffffffffffffffffffffff169060200190929190803573ffffffffffffffffffffffffffffffffffffffff1690602001909291908035906020019092919080359060200190929190803590602001909291905050506106b4565b005b34801561017357600080fd5b506101c06004803603604081101561018a57600080fd5b8101908080359060200190929190803573ffffffffffffffffffffffffffffffffffffffff169060200190929190505050610a60565b005b3480156101ce57600080fd5b506101fb600480360360208110156101e557600080fd5b8101908080359060200190929190505050610bc3565b005b6102056111ef565b6000808473ffffffffffffffffffffffffffffffffffffffff1673ffffffffffffffffffffffffffffffffffffffff168152602001908152602001600020606060405190810160405290816000820160009054906101000a900473ffffffffffffffffffffffffffffffffffffffff1673ffffffffffffffffffffffffffffffffffffffff1673ffffffffffffffffffffffffffffffffffffffff168152602001600182015481526020016002820160009054906101000a900460ff161515151581525050905060011515816040015115151415156102e357600080fd5b600080600090506000809050600080600090505b6001805490508110156105385760018181548110151561031357fe5b9060005260206000200160009054906101000a900473ffffffffffffffffffffffffffffffffffffffff1691508773ffffffffffffffffffffffffffffffffffffffff168273ffffffffffffffffffffffffffffffffffffffff16631cb0c3e76040518163ffffffff167c010000000000000000000000000000000000000000000000000000000002815260040160206040518083038186803b1580156103b957600080fd5b505afa1580156103cd573d6000803e3d6000fd5b505050506040513d60208110156103e357600080fd5b810190808051906020019092919050505073ffffffffffffffffffffffffffffffffffffffff161480156104de57508673ffffffffffffffffffffffffffffffffffffffff168273ffffffffffffffffffffffffffffffffffffffff16639861f3e56040518163ffffffff167c010000000000000000000000000000000000000000000000000000000002815260040160206040518083038186803b15801561048b57600080fd5b505afa15801561049f573d6000803e3d6000fd5b505050506040513d60208110156104b557600080fd5b810190808051906020019092919050505073ffffffffffffffffffffffffffffffffffffffff16145b1561052b576001818154811015156104f257fe5b9060005260206000200160009054906101000a900473ffffffffffffffffffffffffffffffffffffffff16945060019350809250610538565b80806001019150506102f7565b506001151583151514151561054c57600080fd5b8373ffffffffffffffffffffffffffffffffffffffff1663d321fe296040518163ffffffff167c010000000000000000000000000000000000000000000000000000000002815260040160206040518083038186803b1580156105ae57600080fd5b505afa1580156105c2573d6000803e3d6000fd5b505050506040513d60208110156105d857600080fd5b81019080805190602001909291905050508560200151101515156105fb57600080fd5b6106a287878673ffffffffffffffffffffffffffffffffffffffff1663d321fe296040518163ffffffff167c010000000000000000000000000000000000000000000000000000000002815260040160206040518083038186803b15801561066257600080fd5b505afa158015610676573d6000803e3d6000fd5b505050506040513d602081101561068c57600080fd5b8101908080519060200190929190505050610d25565b6106ab82611100565b50505050505050565b6106bc6111ef565b6000808773ffffffffffffffffffffffffffffffffffffffff1673ffffffffffffffffffffffffffffffffffffffff168152602001908152602001600020606060405190810160405290816000820160009054906101000a900473ffffffffffffffffffffffffffffffffffffffff1673ffffffffffffffffffffffffffffffffffffffff1673ffffffffffffffffffffffffffffffffffffffff168152602001600182015481526020016002820160009054906101000a900460ff161515151581525050905061078b6111ef565b6000808773ffffffffffffffffffffffffffffffffffffffff1673ffffffffffffffffffffffffffffffffffffffff168152602001908152602001600020606060405190810160405290816000820160009054906101000a900473ffffffffffffffffffffffffffffffffffffffff1673ffffffffffffffffffffffffffffffffffffffff1673ffffffffffffffffffffffffffffffffffffffff168152602001600182015481526020016002820160009054906101000a900460ff1615151515815250509050600015158260400151151514151561086957600080fd5b8481602001511015151561087c57600080fd5b60004290506000888888888589610891611229565b808773ffffffffffffffffffffffffffffffffffffffff1673ffffffffffffffffffffffffffffffffffffffff1681526020018673ffffffffffffffffffffffffffffffffffffffff1673ffffffffffffffffffffffffffffffffffffffff1681526020018581526020018481526020018381526020018281526020019650505050505050604051809103906000f080158015610932573d6000803e3d6000fd5b50905060018190806001815401808255809150509060018203906000526020600020016000909192909190916101000a81548173ffffffffffffffffffffffffffffffffffffffff021916908373ffffffffffffffffffffffffffffffffffffffff160217905550507f38f6fd01ae8c8efcf8722b2c621f449c460264ae1f86d2b159dec70cac1a3ab28989898986604051808673ffffffffffffffffffffffffffffffffffffffff1673ffffffffffffffffffffffffffffffffffffffff1681526020018573ffffffffffffffffffffffffffffffffffffffff1673ffffffffffffffffffffffffffffffffffffffff1681526020018481526020018381526020018281526020019550505050505060405180910390a1610a55898989610d25565b505050505050505050565b6060604051908101604052808273ffffffffffffffffffffffffffffffffffffffff168152602001838152602001600015158152506000808373ffffffffffffffffffffffffffffffffffffffff1673ffffffffffffffffffffffffffffffffffffffff16815260200190815260200160002060008201518160000160006101000a81548173ffffffffffffffffffffffffffffffffffffffff021916908373ffffffffffffffffffffffffffffffffffffffff1602179055506020820151816001015560408201518160020160006101000a81548160ff0219169083151502179055509050507f168d1dc6cbc5a8412ac5349daf96c1b6f5f68e47a5a3c0d0a6d35666e109147c81836000604051808473ffffffffffffffffffffffffffffffffffffffff1673ffffffffffffffffffffffffffffffffffffffff16815260200183815260200182151515158152602001935050505060405180910390a15050565b6060604051908101604052803373ffffffffffffffffffffffffffffffffffffffff168152602001828152602001600015158152506000803373ffffffffffffffffffffffffffffffffffffffff1673ffffffffffffffffffffffffffffffffffffffff16815260200190815260200160002060008201518160000160006101000a81548173ffffffffffffffffffffffffffffffffffffffff021916908373ffffffffffffffffffffffffffffffffffffffff1602179055506020820151816001015560408201518160020160006101000a81548160ff0219169083151502179055509050507f168d1dc6cbc5a8412ac5349daf96c1b6f5f68e47a5a3c0d0a6d35666e109147c33826000604051808473ffffffffffffffffffffffffffffffffffffffff1673ffffffffffffffffffffffffffffffffffffffff16815260200183815260200182151515158152602001935050505060405180910390a150565b610d2d6111ef565b6000808573ffffffffffffffffffffffffffffffffffffffff1673ffffffffffffffffffffffffffffffffffffffff168152602001908152602001600020606060405190810160405290816000820160009054906101000a900473ffffffffffffffffffffffffffffffffffffffff1673ffffffffffffffffffffffffffffffffffffffff1673ffffffffffffffffffffffffffffffffffffffff168152602001600182015481526020016002820160009054906101000a900460ff1615151515815250509050610dfc6111ef565b6000808573ffffffffffffffffffffffffffffffffffffffff1673ffffffffffffffffffffffffffffffffffffffff168152602001908152602001600020606060405190810160405290816000820160009054906101000a900473ffffffffffffffffffffffffffffffffffffffff1673ffffffffffffffffffffffffffffffffffffffff1673ffffffffffffffffffffffffffffffffffffffff168152602001600182015481526020016002820160009054906101000a900460ff161515151581525050905082816020018181510391508181525050828260200181815101915081815250506001826040019015159081151581525050816000808773ffffffffffffffffffffffffffffffffffffffff1673ffffffffffffffffffffffffffffffffffffffff16815260200190815260200160002060008201518160000160006101000a81548173ffffffffffffffffffffffffffffffffffffffff021916908373ffffffffffffffffffffffffffffffffffffffff1602179055506020820151816001015560408201518160020160006101000a81548160ff021916908315150217905550905050806000808673ffffffffffffffffffffffffffffffffffffffff1673ffffffffffffffffffffffffffffffffffffffff16815260200190815260200160002060008201518160000160006101000a81548173ffffffffffffffffffffffffffffffffffffffff021916908373ffffffffffffffffffffffffffffffffffffffff1602179055506020820151816001015560408201518160020160006101000a81548160ff0219169083151502179055509050507f0a85107a334eae0d22d21cdf13af0f8e8125039ec60baaa843d2c4c5b0680174858585604051808473ffffffffffffffffffffffffffffffffffffffff1673ffffffffffffffffffffffffffffffffffffffff1681526020018373ffffffffffffffffffffffffffffffffffffffff1673ffffffffffffffffffffffffffffffffffffffff168152602001828152602001935050505060405180910390a15050505050565b6001805490508110151561111357600080fd5b60018080805490500381548110151561112857fe5b9060005260206000200160009054906101000a900473ffffffffffffffffffffffffffffffffffffffff1660018281548110151561116257fe5b9060005260206000200160006101000a81548173ffffffffffffffffffffffffffffffffffffffff021916908373ffffffffffffffffffffffffffffffffffffffff160217905550600180548015156111b757fe5b6001900381819060005260206000200160006101000a81549073ffffffffffffffffffffffffffffffffffffffff0219169055905550565b606060405190810160405280600073ffffffffffffffffffffffffffffffffffffffff168152602001600081526020016000151581525090565b6040516102fe8061123a8339019056fe60806040526000600660006101000a81548160ff02191690831515021790555034801561002b57600080fd5b5060405160c0806102fe833981018060405260c081101561004b57600080fd5b81019080805190602001909291908051906020019092919080519060200190929190805190602001909291908051906020019092919080519060200190929190505050856000806101000a81548173ffffffffffffffffffffffffffffffffffffffff021916908373ffffffffffffffffffffffffffffffffffffffff16021790555084600160006101000a81548173ffffffffffffffffffffffffffffffffffffffff021916908373ffffffffffffffffffffffffffffffffffffffff160217905550836002819055508260038190555081600481905550806005819055505050505050506101be806101406000396000f3fe608060405260043610610057576000357c0100000000000000000000000000000000000000000000000000000000900463ffffffff1680631cb0c3e71461005c5780639861f3e5146100b3578063d321fe291461010a575b600080fd5b34801561006857600080fd5b50610071610135565b604051808273ffffffffffffffffffffffffffffffffffffffff1673ffffffffffffffffffffffffffffffffffffffff16815260200191505060405180910390f35b3480156100bf57600080fd5b506100c861015e565b604051808273ffffffffffffffffffffffffffffffffffffffff1673ffffffffffffffffffffffffffffffffffffffff16815260200191505060405180910390f35b34801561011657600080fd5b5061011f610188565b6040518082815260200191505060405180910390f35b60008060009054906101000a900473ffffffffffffffffffffffffffffffffffffffff16905090565b6000600160009054906101000a900473ffffffffffffffffffffffffffffffffffffffff16905090565b600060025490509056fea165627a7a72305820244a56666c82ec8a021fa01c4b5e1e19544aa7a0941d60214c36487f9862766f0029a165627a7a72305820ff46da46c41267f9d4e47146996e57c1927fb3e8c88deb615287a3c3c774ee090029",
  "source": "pragma solidity >=0.4.22 <0.9.0;\n\nimport \"./Credit.sol\";\n\ncontract Exchange {\n    struct User {\n        address _address;\n        uint256 balance;\n        bool hasCredit;\n    }\n\n    // maps address of a user to the other addresses they owe money\n    // mapping(address => address[]) owesMoneyTo;\n    mapping(address => User) userMapping;\n    Credit[] creditArray;\n\n    constructor() public {}\n\n    event UserCreated(address _address, uint256 balance, bool hasCredit);\n\n    event LogTransfer(address borrower, address lender, uint256 amt);\n\n    event CreditCreated(\n        address borrower,\n        address lender,\n        uint256 amount,\n        uint256 interest,\n        uint256 dateCreated\n    );\n\n    function removeFromCreditArr(uint index) internal {\n        require(index < creditArray.length);\n        creditArray[index] = creditArray[creditArray.length-1];\n        creditArray.pop();\n    }\n\n    function createUser(uint256 _balance, address _address) public {\n        userMapping[_address] = User(_address, _balance, false);\n        emit UserCreated(_address, _balance, false);\n    }\n\n    function createUser(uint256 _balance) public {\n        userMapping[msg.sender] = User(msg.sender, _balance, false);\n        emit UserCreated(msg.sender, _balance, false);\n    }\n\n    function createCredit(\n        address borrower,\n        address lender,\n        uint256 amount,\n        uint256 interest,\n        uint256 repaymentDate\n    ) public {\n        User memory borrowerUser = userMapping[borrower];\n        User memory lenderUser = userMapping[lender];\n\n        require(borrowerUser.hasCredit == false);\n        require(lenderUser.balance >= amount);\n\n        uint256 currentDate = block.timestamp;\n\n        Credit credit = new Credit(\n            borrower,\n            lender,\n            amount,\n            interest,\n            currentDate,\n            repaymentDate\n        );\n        creditArray.push(credit);\n\n        emit CreditCreated(borrower, lender, amount, interest, currentDate);\n\n        transfer(borrower, lender, amount);\n    }\n\n    // needs to repay in full, no installments\n    // havent implemented interest functionality yet. just repaying in full\n    function repay(address borrower, address lender) public {\n        User memory borrowerUser = userMapping[borrower];\n\n        require(borrowerUser.hasCredit == true);\n\n        Credit credit;\n        bool foundInCreditArray = false;\n        uint index = 0;\n        Credit tempCredit;\n        // uint arraySize = sizeof(creditArray) / sizeof(creditArray[0]);\n\n        for (uint i=0; i < creditArray.length; i++) {\n            tempCredit = creditArray[i];\n            if (tempCredit.getBorrower() == borrower && tempCredit.getLender() == lender) {\n                credit = creditArray[i];\n                foundInCreditArray = true;\n                index = i;\n                break;\n            }\n        }\n\n        require(foundInCreditArray == true);\n        require(borrowerUser.balance >= credit.getAmount());\n\n        transfer(borrower, lender, credit.getAmount());\n        removeFromCreditArr(index);\n    }\n\n    // transfer funds\n    function transfer(\n        address _sender,\n        address _receiver,\n        uint256 amt\n    ) private {\n        User memory sender = userMapping[_sender];\n        User memory receiver = userMapping[_receiver];\n\n        receiver.balance -= amt;\n\n        sender.balance += amt;\n        sender.hasCredit = true;\n\n        userMapping[_sender] = sender;\n        userMapping[_receiver] = receiver;\n\n        emit LogTransfer(_sender, _receiver, amt);\n    }\n}\n",
  "sourcePath": "/Users/palaashkolhe/VSCode Projects/DeFi Lending and Borrowing/solidity-server/contracts/Exchange.sol",
  "compiler": {
    "name": "solc",
    "version": "0.5.0+commit.1d4f565a.Emscripten.clang"
  },
  "schemaVersion": "3.0.1",
  "updatedAt": "2022-12-02T04:31:50.341Z",
  "devdoc": {
    "methods": {}
  },
  "userdoc": {
    "methods": {}
  }
}