{
  "contractName": "Credit",
  "abi": [
    {
      "inputs": [],
      "stateMutability": "nonpayable",
      "type": "constructor"
    },
    {
      "inputs": [],
      "name": "amount",
      "outputs": [
        {
          "internalType": "uint256",
          "name": "",
          "type": "uint256"
        }
      ],
      "stateMutability": "view",
      "type": "function",
      "constant": true
    },
    {
      "inputs": [],
      "name": "borrower",
      "outputs": [
        {
          "internalType": "address",
          "name": "",
          "type": "address"
        }
      ],
      "stateMutability": "view",
      "type": "function",
      "constant": true
    },
    {
      "inputs": [],
      "name": "dateCreated",
      "outputs": [
        {
          "internalType": "uint256",
          "name": "",
          "type": "uint256"
        }
      ],
      "stateMutability": "view",
      "type": "function",
      "constant": true
    },
    {
      "inputs": [],
      "name": "interest",
      "outputs": [
        {
          "internalType": "uint256",
          "name": "",
          "type": "uint256"
        }
      ],
      "stateMutability": "view",
      "type": "function",
      "constant": true
    },
    {
      "inputs": [],
      "name": "lender",
      "outputs": [
        {
          "internalType": "address",
          "name": "",
          "type": "address"
        }
      ],
      "stateMutability": "view",
      "type": "function",
      "constant": true
    },
    {
      "inputs": [],
      "name": "repaymentDate",
      "outputs": [
        {
          "internalType": "uint256",
          "name": "",
          "type": "uint256"
        }
      ],
      "stateMutability": "view",
      "type": "function",
      "constant": true
    },
    {
      "inputs": [
        {
          "internalType": "address",
          "name": "_borrower",
          "type": "address"
        },
        {
          "internalType": "address",
          "name": "_lender",
          "type": "address"
        },
        {
          "internalType": "uint256",
          "name": "_amount",
          "type": "uint256"
        },
        {
          "internalType": "uint256",
          "name": "_interest",
          "type": "uint256"
        },
        {
          "internalType": "uint256",
          "name": "_dateCreated",
          "type": "uint256"
        },
        {
          "internalType": "uint256",
          "name": "_repaymentDate",
          "type": "uint256"
        }
      ],
      "name": "initializeCredit",
      "outputs": [],
      "stateMutability": "nonpayable",
      "type": "function"
    },
    {
      "inputs": [],
      "name": "getBorrower",
      "outputs": [
        {
          "internalType": "address",
          "name": "",
          "type": "address"
        }
      ],
      "stateMutability": "view",
      "type": "function",
      "constant": true
    },
    {
      "inputs": [],
      "name": "getLender",
      "outputs": [
        {
          "internalType": "address",
          "name": "",
          "type": "address"
        }
      ],
      "stateMutability": "view",
      "type": "function",
      "constant": true
    },
    {
      "inputs": [],
      "name": "getAmount",
      "outputs": [
        {
          "internalType": "uint256",
          "name": "",
          "type": "uint256"
        }
      ],
      "stateMutability": "view",
      "type": "function",
      "constant": true
    }
  ],
  "bytecode": "0x60806040526000600660006101000a81548160ff02191690831515021790555034801561002b57600080fd5b506104888061003b6000396000f3fe608060405234801561001057600080fd5b506004361061009e5760003560e01c8063aad3ff6b11610066578063aad3ff6b146101bd578063b05f04d314610249578063bcead63e14610267578063c392f766146102b1578063d321fe29146102cf5761009e565b80631cb0c3e7146100a35780631f741c7a146100ed5780637df1f1b91461010b5780639861f3e514610155578063aa8c217c1461019f575b600080fd5b6100ab6102ed565b604051808273ffffffffffffffffffffffffffffffffffffffff1673ffffffffffffffffffffffffffffffffffffffff16815260200191505060405180910390f35b6100f5610316565b6040518082815260200191505060405180910390f35b61011361031c565b604051808273ffffffffffffffffffffffffffffffffffffffff1673ffffffffffffffffffffffffffffffffffffffff16815260200191505060405180910390f35b61015d610341565b604051808273ffffffffffffffffffffffffffffffffffffffff1673ffffffffffffffffffffffffffffffffffffffff16815260200191505060405180910390f35b6101a761036b565b6040518082815260200191505060405180910390f35b610247600480360360c08110156101d357600080fd5b81019080803573ffffffffffffffffffffffffffffffffffffffff169060200190929190803573ffffffffffffffffffffffffffffffffffffffff16906020019092919080359060200190929190803590602001909291908035906020019092919080359060200190929190505050610371565b005b610251610416565b6040518082815260200191505060405180910390f35b61026f61041c565b604051808273ffffffffffffffffffffffffffffffffffffffff1673ffffffffffffffffffffffffffffffffffffffff16815260200191505060405180910390f35b6102b9610442565b6040518082815260200191505060405180910390f35b6102d7610448565b6040518082815260200191505060405180910390f35b60008060009054906101000a900473ffffffffffffffffffffffffffffffffffffffff16905090565b60045481565b6000809054906101000a900473ffffffffffffffffffffffffffffffffffffffff1681565b6000600160009054906101000a900473ffffffffffffffffffffffffffffffffffffffff16905090565b60025481565b856000806101000a81548173ffffffffffffffffffffffffffffffffffffffff021916908373ffffffffffffffffffffffffffffffffffffffff16021790555084600160006101000a81548173ffffffffffffffffffffffffffffffffffffffff021916908373ffffffffffffffffffffffffffffffffffffffff16021790555083600281905550826003819055508160048190555080600581905550505050505050565b60055481565b600160009054906101000a900473ffffffffffffffffffffffffffffffffffffffff1681565b60035481565b600060025490509056fea2646970667358221220ff74227b80237b4f110af2de34fa131fee3581f737a74660b3a2e242ac61584364736f6c63430006000033",
  "source": "pragma solidity >=0.4.22 <0.9.0;\n\n// each credit contract is created uniquely for each user\ncontract Credit {\n    address public borrower;\n    address public lender;\n    uint256 public amount;\n    uint256 public interest;\n    uint256 public dateCreated;\n    uint256 public repaymentDate;\n\n    // when repaid this contract will be terminated\n    bool repaid = false;\n\n    constructor() public {}\n\n    function initializeCredit(\n        address _borrower,\n        address _lender,\n        uint256 _amount,\n        uint256 _interest,\n        uint256 _dateCreated,\n        uint256 _repaymentDate\n    ) public {\n        borrower = _borrower;\n        lender = _lender;\n        amount = _amount;\n        interest = _interest;\n        dateCreated = _dateCreated;\n        repaymentDate = _repaymentDate;\n    }\n\n    function getBorrower() public view returns (address) {\n        return borrower;\n    }\n\n    function getLender() public view returns (address) {\n        return lender;\n    }\n\n    function getAmount() public view returns (uint256) {\n        return amount;\n    }\n}\n",
  "sourcePath": "/Users/palaashkolhe/VSCode Projects/DeFi Lending and Borrowing/solidity-server/contracts/Credit.sol",
  "compiler": {
    "name": "solc",
    "version": "0.6.0+commit.26b70077.Emscripten.clang"
  },
  "schemaVersion": "3.4.11",
  "updatedAt": "2022-12-11T21:26:13.878Z",
  "networkType": "ethereum",
  "devdoc": {
    "methods": {}
  },
  "userdoc": {
    "methods": {}
  }
}