{
  "contractName": "Exchange",
  "abi": [
    {
      "inputs": [],
      "stateMutability": "nonpayable",
      "type": "constructor"
    },
    {
      "anonymous": false,
      "inputs": [
        {
          "indexed": false,
          "internalType": "address",
          "name": "borrower",
          "type": "address"
        },
        {
          "indexed": false,
          "internalType": "address",
          "name": "lender",
          "type": "address"
        },
        {
          "indexed": false,
          "internalType": "uint256",
          "name": "amount",
          "type": "uint256"
        },
        {
          "indexed": false,
          "internalType": "uint256",
          "name": "interest",
          "type": "uint256"
        },
        {
          "indexed": false,
          "internalType": "uint256",
          "name": "dateCreated",
          "type": "uint256"
        }
      ],
      "name": "CreditCreated",
      "type": "event"
    },
    {
      "anonymous": false,
      "inputs": [
        {
          "indexed": false,
          "internalType": "address",
          "name": "borrower",
          "type": "address"
        },
        {
          "indexed": false,
          "internalType": "address",
          "name": "lender",
          "type": "address"
        },
        {
          "indexed": false,
          "internalType": "uint256",
          "name": "amt",
          "type": "uint256"
        }
      ],
      "name": "LogTransfer",
      "type": "event"
    },
    {
      "anonymous": false,
      "inputs": [
        {
          "indexed": false,
          "internalType": "address",
          "name": "_address",
          "type": "address"
        },
        {
          "indexed": false,
          "internalType": "uint256",
          "name": "balance",
          "type": "uint256"
        },
        {
          "indexed": false,
          "internalType": "bool",
          "name": "hasCredit",
          "type": "bool"
        }
      ],
      "name": "UserCreated",
      "type": "event"
    },
    {
      "inputs": [
        {
          "internalType": "uint256",
          "name": "_balance",
          "type": "uint256"
        },
        {
          "internalType": "address payable",
          "name": "_address",
          "type": "address"
        }
      ],
      "name": "createUser",
      "outputs": [],
      "stateMutability": "nonpayable",
      "type": "function"
    },
    {
      "inputs": [
        {
          "internalType": "uint256",
          "name": "_balance",
          "type": "uint256"
        }
      ],
      "name": "createUser",
      "outputs": [],
      "stateMutability": "nonpayable",
      "type": "function"
    },
    {
      "inputs": [
        {
          "internalType": "address",
          "name": "borrower",
          "type": "address"
        },
        {
          "internalType": "address",
          "name": "lender",
          "type": "address"
        },
        {
          "internalType": "uint256",
          "name": "amount",
          "type": "uint256"
        },
        {
          "internalType": "uint256",
          "name": "interest",
          "type": "uint256"
        },
        {
          "internalType": "uint256",
          "name": "repaymentDate",
          "type": "uint256"
        }
      ],
      "name": "createCredit",
      "outputs": [],
      "stateMutability": "nonpayable",
      "type": "function"
    },
    {
      "inputs": [
        {
          "internalType": "address",
          "name": "borrower",
          "type": "address"
        },
        {
          "internalType": "address",
          "name": "lender",
          "type": "address"
        }
      ],
      "name": "repay",
      "outputs": [],
      "stateMutability": "nonpayable",
      "type": "function"
    },
    {
      "inputs": [],
      "name": "getCreditArray",
      "outputs": [
        {
          "internalType": "contract Credit[]",
          "name": "",
          "type": "address[]"
        }
      ],
      "stateMutability": "view",
      "type": "function",
      "constant": true
    }
  ],
  "bytecode": "0x60806040523480156200001157600080fd5b50600073f1234bbf19cd46b152a5f2a86c481c10c1436b3c90506000736a18f2f25c9b87988c7280e586bd1ffa979ac7c79050600073de41c87ead1b6bf3bdc1a5f576476a800187aa06905062000070606484620000d560201b60201c565b62000083603283620000d560201b60201c565b62000096604b82620000d560201b60201c565b620000b183836014600161271042016200023760201b60201c565b620000cc8282600f6002614e2042016200023760201b60201c565b50505062000a13565b60405180606001604052808273ffffffffffffffffffffffffffffffffffffffff168152602001838152602001600015158152506000808373ffffffffffffffffffffffffffffffffffffffff1673ffffffffffffffffffffffffffffffffffffffff16815260200190815260200160002060008201518160000160006101000a81548173ffffffffffffffffffffffffffffffffffffffff021916908373ffffffffffffffffffffffffffffffffffffffff1602179055506020820151816001015560408201518160020160006101000a81548160ff0219169083151502179055509050507f168d1dc6cbc5a8412ac5349daf96c1b6f5f68e47a5a3c0d0a6d35666e109147c81836000604051808473ffffffffffffffffffffffffffffffffffffffff1673ffffffffffffffffffffffffffffffffffffffff16815260200183815260200182151515158152602001935050505060405180910390a15050565b62000241620009cc565b6000808773ffffffffffffffffffffffffffffffffffffffff1673ffffffffffffffffffffffffffffffffffffffff1681526020019081526020016000206040518060600160405290816000820160009054906101000a900473ffffffffffffffffffffffffffffffffffffffff1673ffffffffffffffffffffffffffffffffffffffff1673ffffffffffffffffffffffffffffffffffffffff168152602001600182015481526020016002820160009054906101000a900460ff161515151581525050905062000311620009cc565b6000808773ffffffffffffffffffffffffffffffffffffffff1673ffffffffffffffffffffffffffffffffffffffff1681526020019081526020016000206040518060600160405290816000820160009054906101000a900473ffffffffffffffffffffffffffffffffffffffff1673ffffffffffffffffffffffffffffffffffffffff1673ffffffffffffffffffffffffffffffffffffffff168152602001600182015481526020016002820160009054906101000a900460ff1615151515815250509050600015158260400151151514620003ed57600080fd5b8481602001511015620003ff57600080fd5b600042905060008888888885896040516200041a9062000a05565b808773ffffffffffffffffffffffffffffffffffffffff1673ffffffffffffffffffffffffffffffffffffffff1681526020018673ffffffffffffffffffffffffffffffffffffffff1673ffffffffffffffffffffffffffffffffffffffff1681526020018581526020018481526020018381526020018281526020019650505050505050604051809103906000f080158015620004bc573d6000803e3d6000fd5b5090506001819080600181540180825580915050600190039060005260206000200160009091909190916101000a81548173ffffffffffffffffffffffffffffffffffffffff021916908373ffffffffffffffffffffffffffffffffffffffff1602179055507f38f6fd01ae8c8efcf8722b2c621f449c460264ae1f86d2b159dec70cac1a3ab28989898986604051808673ffffffffffffffffffffffffffffffffffffffff1673ffffffffffffffffffffffffffffffffffffffff1681526020018573ffffffffffffffffffffffffffffffffffffffff1673ffffffffffffffffffffffffffffffffffffffff1681526020018481526020018381526020018281526020019550505050505060405180910390a1620005e4898989620005ef60201b60201c565b505050505050505050565b620005f9620009cc565b6000808573ffffffffffffffffffffffffffffffffffffffff1673ffffffffffffffffffffffffffffffffffffffff1681526020019081526020016000206040518060600160405290816000820160009054906101000a900473ffffffffffffffffffffffffffffffffffffffff1673ffffffffffffffffffffffffffffffffffffffff1673ffffffffffffffffffffffffffffffffffffffff168152602001600182015481526020016002820160009054906101000a900460ff1615151515815250509050620006c9620009cc565b6000808573ffffffffffffffffffffffffffffffffffffffff1673ffffffffffffffffffffffffffffffffffffffff1681526020019081526020016000206040518060600160405290816000820160009054906101000a900473ffffffffffffffffffffffffffffffffffffffff1673ffffffffffffffffffffffffffffffffffffffff1673ffffffffffffffffffffffffffffffffffffffff168152602001600182015481526020016002820160009054906101000a900460ff161515151581525050905082816020018181510391508181525050828260200181815101915081815250506001826040019015159081151581525050816000808773ffffffffffffffffffffffffffffffffffffffff1673ffffffffffffffffffffffffffffffffffffffff16815260200190815260200160002060008201518160000160006101000a81548173ffffffffffffffffffffffffffffffffffffffff021916908373ffffffffffffffffffffffffffffffffffffffff1602179055506020820151816001015560408201518160020160006101000a81548160ff021916908315150217905550905050806000808673ffffffffffffffffffffffffffffffffffffffff1673ffffffffffffffffffffffffffffffffffffffff16815260200190815260200160002060008201518160000160006101000a81548173ffffffffffffffffffffffffffffffffffffffff021916908373ffffffffffffffffffffffffffffffffffffffff1602179055506020820151816001015560408201518160020160006101000a81548160ff0219169083151502179055509050507f0a85107a334eae0d22d21cdf13af0f8e8125039ec60baaa843d2c4c5b0680174858585604051808473ffffffffffffffffffffffffffffffffffffffff1673ffffffffffffffffffffffffffffffffffffffff1681526020018373ffffffffffffffffffffffffffffffffffffffff1673ffffffffffffffffffffffffffffffffffffffff168152602001828152602001935050505060405180910390a15050505050565b6040518060600160405280600073ffffffffffffffffffffffffffffffffffffffff168152602001600081526020016000151581525090565b6102ce8062001f8483390190565b6115618062000a236000396000f3fe608060405234801561001057600080fd5b50600436106100575760003560e01c80635b87ae0f1461005c5780636ed671e8146100bb5780639881086b1461011f578063b854b00f146101a1578063ffbdff66146101ef575b600080fd5b61006461021d565b6040518080602001828103825283818151815260200191508051906020019060200280838360005b838110156100a757808201518184015260208101905061008c565b505050509050019250505060405180910390f35b61011d600480360360408110156100d157600080fd5b81019080803573ffffffffffffffffffffffffffffffffffffffff169060200190929190803573ffffffffffffffffffffffffffffffffffffffff1690602001909291905050506102ab565b005b61019f600480360360a081101561013557600080fd5b81019080803573ffffffffffffffffffffffffffffffffffffffff169060200190929190803573ffffffffffffffffffffffffffffffffffffffff1690602001909291908035906020019092919080359060200190929190803590602001909291905050506106e7565b005b6101ed600480360360408110156101b757600080fd5b8101908080359060200190929190803573ffffffffffffffffffffffffffffffffffffffff169060200190929190505050610a8e565b005b61021b6004803603602081101561020557600080fd5b8101908080359060200190929190505050610bf0565b005b606060018054806020026020016040519081016040528092919081815260200182805480156102a157602002820191906000526020600020905b8160009054906101000a900473ffffffffffffffffffffffffffffffffffffffff1673ffffffffffffffffffffffffffffffffffffffff1681526020019060010190808311610257575b5050505050905090565b6102b3611217565b6000808473ffffffffffffffffffffffffffffffffffffffff1673ffffffffffffffffffffffffffffffffffffffff1681526020019081526020016000206040518060600160405290816000820160009054906101000a900473ffffffffffffffffffffffffffffffffffffffff1673ffffffffffffffffffffffffffffffffffffffff1673ffffffffffffffffffffffffffffffffffffffff168152602001600182015481526020016002820160009054906101000a900460ff161515151581525050905060011515816040015115151461038e57600080fd5b600080600090506000809050600080600090505b6001805490508110156105a757600181815481106103bc57fe5b9060005260206000200160009054906101000a900473ffffffffffffffffffffffffffffffffffffffff1691508773ffffffffffffffffffffffffffffffffffffffff168273ffffffffffffffffffffffffffffffffffffffff16631cb0c3e76040518163ffffffff1660e01b815260040160206040518083038186803b15801561044657600080fd5b505afa15801561045a573d6000803e3d6000fd5b505050506040513d602081101561047057600080fd5b810190808051906020019092919050505073ffffffffffffffffffffffffffffffffffffffff1614801561054f57508673ffffffffffffffffffffffffffffffffffffffff168273ffffffffffffffffffffffffffffffffffffffff16639861f3e56040518163ffffffff1660e01b815260040160206040518083038186803b1580156104fc57600080fd5b505afa158015610510573d6000803e3d6000fd5b505050506040513d602081101561052657600080fd5b810190808051906020019092919050505073ffffffffffffffffffffffffffffffffffffffff16145b1561059a576001818154811061056157fe5b9060005260206000200160009054906101000a900473ffffffffffffffffffffffffffffffffffffffff169450600193508092506105a7565b80806001019150506103a2565b5060011515831515146105b957600080fd5b8373ffffffffffffffffffffffffffffffffffffffff1663d321fe296040518163ffffffff1660e01b815260040160206040518083038186803b1580156105ff57600080fd5b505afa158015610613573d6000803e3d6000fd5b505050506040513d602081101561062957600080fd5b81019080805190602001909291905050508560200151101561064a57600080fd5b6106d587878673ffffffffffffffffffffffffffffffffffffffff1663d321fe296040518163ffffffff1660e01b815260040160206040518083038186803b15801561069557600080fd5b505afa1580156106a9573d6000803e3d6000fd5b505050506040513d60208110156106bf57600080fd5b8101908080519060200190929190505050610d57565b6106de82611130565b50505050505050565b6106ef611217565b6000808773ffffffffffffffffffffffffffffffffffffffff1673ffffffffffffffffffffffffffffffffffffffff1681526020019081526020016000206040518060600160405290816000820160009054906101000a900473ffffffffffffffffffffffffffffffffffffffff1673ffffffffffffffffffffffffffffffffffffffff1673ffffffffffffffffffffffffffffffffffffffff168152602001600182015481526020016002820160009054906101000a900460ff16151515158152505090506107bd611217565b6000808773ffffffffffffffffffffffffffffffffffffffff1673ffffffffffffffffffffffffffffffffffffffff1681526020019081526020016000206040518060600160405290816000820160009054906101000a900473ffffffffffffffffffffffffffffffffffffffff1673ffffffffffffffffffffffffffffffffffffffff1673ffffffffffffffffffffffffffffffffffffffff168152602001600182015481526020016002820160009054906101000a900460ff161515151581525050905060001515826040015115151461089857600080fd5b84816020015110156108a957600080fd5b600042905060008888888885896040516108c290611250565b808773ffffffffffffffffffffffffffffffffffffffff1673ffffffffffffffffffffffffffffffffffffffff1681526020018673ffffffffffffffffffffffffffffffffffffffff1673ffffffffffffffffffffffffffffffffffffffff1681526020018581526020018481526020018381526020018281526020019650505050505050604051809103906000f080158015610963573d6000803e3d6000fd5b5090506001819080600181540180825580915050600190039060005260206000200160009091909190916101000a81548173ffffffffffffffffffffffffffffffffffffffff021916908373ffffffffffffffffffffffffffffffffffffffff1602179055507f38f6fd01ae8c8efcf8722b2c621f449c460264ae1f86d2b159dec70cac1a3ab28989898986604051808673ffffffffffffffffffffffffffffffffffffffff1673ffffffffffffffffffffffffffffffffffffffff1681526020018573ffffffffffffffffffffffffffffffffffffffff1673ffffffffffffffffffffffffffffffffffffffff1681526020018481526020018381526020018281526020019550505050505060405180910390a1610a83898989610d57565b505050505050505050565b60405180606001604052808273ffffffffffffffffffffffffffffffffffffffff168152602001838152602001600015158152506000808373ffffffffffffffffffffffffffffffffffffffff1673ffffffffffffffffffffffffffffffffffffffff16815260200190815260200160002060008201518160000160006101000a81548173ffffffffffffffffffffffffffffffffffffffff021916908373ffffffffffffffffffffffffffffffffffffffff1602179055506020820151816001015560408201518160020160006101000a81548160ff0219169083151502179055509050507f168d1dc6cbc5a8412ac5349daf96c1b6f5f68e47a5a3c0d0a6d35666e109147c81836000604051808473ffffffffffffffffffffffffffffffffffffffff1673ffffffffffffffffffffffffffffffffffffffff16815260200183815260200182151515158152602001935050505060405180910390a15050565b600033905060405180606001604052808273ffffffffffffffffffffffffffffffffffffffff168152602001838152602001600015158152506000803373ffffffffffffffffffffffffffffffffffffffff1673ffffffffffffffffffffffffffffffffffffffff16815260200190815260200160002060008201518160000160006101000a81548173ffffffffffffffffffffffffffffffffffffffff021916908373ffffffffffffffffffffffffffffffffffffffff1602179055506020820151816001015560408201518160020160006101000a81548160ff0219169083151502179055509050507f168d1dc6cbc5a8412ac5349daf96c1b6f5f68e47a5a3c0d0a6d35666e109147c33836000604051808473ffffffffffffffffffffffffffffffffffffffff1673ffffffffffffffffffffffffffffffffffffffff16815260200183815260200182151515158152602001935050505060405180910390a15050565b610d5f611217565b6000808573ffffffffffffffffffffffffffffffffffffffff1673ffffffffffffffffffffffffffffffffffffffff1681526020019081526020016000206040518060600160405290816000820160009054906101000a900473ffffffffffffffffffffffffffffffffffffffff1673ffffffffffffffffffffffffffffffffffffffff1673ffffffffffffffffffffffffffffffffffffffff168152602001600182015481526020016002820160009054906101000a900460ff1615151515815250509050610e2d611217565b6000808573ffffffffffffffffffffffffffffffffffffffff1673ffffffffffffffffffffffffffffffffffffffff1681526020019081526020016000206040518060600160405290816000820160009054906101000a900473ffffffffffffffffffffffffffffffffffffffff1673ffffffffffffffffffffffffffffffffffffffff1673ffffffffffffffffffffffffffffffffffffffff168152602001600182015481526020016002820160009054906101000a900460ff161515151581525050905082816020018181510391508181525050828260200181815101915081815250506001826040019015159081151581525050816000808773ffffffffffffffffffffffffffffffffffffffff1673ffffffffffffffffffffffffffffffffffffffff16815260200190815260200160002060008201518160000160006101000a81548173ffffffffffffffffffffffffffffffffffffffff021916908373ffffffffffffffffffffffffffffffffffffffff1602179055506020820151816001015560408201518160020160006101000a81548160ff021916908315150217905550905050806000808673ffffffffffffffffffffffffffffffffffffffff1673ffffffffffffffffffffffffffffffffffffffff16815260200190815260200160002060008201518160000160006101000a81548173ffffffffffffffffffffffffffffffffffffffff021916908373ffffffffffffffffffffffffffffffffffffffff1602179055506020820151816001015560408201518160020160006101000a81548160ff0219169083151502179055509050507f0a85107a334eae0d22d21cdf13af0f8e8125039ec60baaa843d2c4c5b0680174858585604051808473ffffffffffffffffffffffffffffffffffffffff1673ffffffffffffffffffffffffffffffffffffffff1681526020018373ffffffffffffffffffffffffffffffffffffffff1673ffffffffffffffffffffffffffffffffffffffff168152602001828152602001935050505060405180910390a15050505050565b600180549050811061114157600080fd5b6001808080549050038154811061115457fe5b9060005260206000200160009054906101000a900473ffffffffffffffffffffffffffffffffffffffff166001828154811061118c57fe5b9060005260206000200160006101000a81548173ffffffffffffffffffffffffffffffffffffffff021916908373ffffffffffffffffffffffffffffffffffffffff16021790555060018054806111df57fe5b6001900381819060005260206000200160006101000a81549073ffffffffffffffffffffffffffffffffffffffff0219169055905550565b6040518060600160405280600073ffffffffffffffffffffffffffffffffffffffff168152602001600081526020016000151581525090565b6102ce8061125e8339019056fe60806040526000600660006101000a81548160ff02191690831515021790555034801561002b57600080fd5b506040516102ce3803806102ce833981810160405260c081101561004e57600080fd5b81019080805190602001909291908051906020019092919080519060200190929190805190602001909291908051906020019092919080519060200190929190505050856000806101000a81548173ffffffffffffffffffffffffffffffffffffffff021916908373ffffffffffffffffffffffffffffffffffffffff16021790555084600160006101000a81548173ffffffffffffffffffffffffffffffffffffffff021916908373ffffffffffffffffffffffffffffffffffffffff1602179055508360028190555082600381905550816004819055508060058190555050505050505061018b806101436000396000f3fe608060405234801561001057600080fd5b50600436106100415760003560e01c80631cb0c3e7146100465780639861f3e514610090578063d321fe29146100da575b600080fd5b61004e6100f8565b604051808273ffffffffffffffffffffffffffffffffffffffff1673ffffffffffffffffffffffffffffffffffffffff16815260200191505060405180910390f35b610098610121565b604051808273ffffffffffffffffffffffffffffffffffffffff1673ffffffffffffffffffffffffffffffffffffffff16815260200191505060405180910390f35b6100e261014b565b6040518082815260200191505060405180910390f35b60008060009054906101000a900473ffffffffffffffffffffffffffffffffffffffff16905090565b6000600160009054906101000a900473ffffffffffffffffffffffffffffffffffffffff16905090565b600060025490509056fea26469706673582212207d6191edd0938f36f2d7f111b67b6e48870053453b702a4ce8bfdbc70b0d85c064736f6c63430006000033a264697066735822122004b5f97376b68286fbb47d1e1ada5c4644d0f145422bb4006c334144442cddd764736f6c6343000600003360806040526000600660006101000a81548160ff02191690831515021790555034801561002b57600080fd5b506040516102ce3803806102ce833981810160405260c081101561004e57600080fd5b81019080805190602001909291908051906020019092919080519060200190929190805190602001909291908051906020019092919080519060200190929190505050856000806101000a81548173ffffffffffffffffffffffffffffffffffffffff021916908373ffffffffffffffffffffffffffffffffffffffff16021790555084600160006101000a81548173ffffffffffffffffffffffffffffffffffffffff021916908373ffffffffffffffffffffffffffffffffffffffff1602179055508360028190555082600381905550816004819055508060058190555050505050505061018b806101436000396000f3fe608060405234801561001057600080fd5b50600436106100415760003560e01c80631cb0c3e7146100465780639861f3e514610090578063d321fe29146100da575b600080fd5b61004e6100f8565b604051808273ffffffffffffffffffffffffffffffffffffffff1673ffffffffffffffffffffffffffffffffffffffff16815260200191505060405180910390f35b610098610121565b604051808273ffffffffffffffffffffffffffffffffffffffff1673ffffffffffffffffffffffffffffffffffffffff16815260200191505060405180910390f35b6100e261014b565b6040518082815260200191505060405180910390f35b60008060009054906101000a900473ffffffffffffffffffffffffffffffffffffffff16905090565b6000600160009054906101000a900473ffffffffffffffffffffffffffffffffffffffff16905090565b600060025490509056fea26469706673582212207d6191edd0938f36f2d7f111b67b6e48870053453b702a4ce8bfdbc70b0d85c064736f6c63430006000033",
  "source": "pragma solidity >=0.4.22 <0.9.0;\n\nimport \"./Credit.sol\";\n\ncontract Exchange {\n    struct User {\n        address payable _address;\n        uint256 balance;\n        bool hasCredit;\n    }\n\n    // maps address of a user to the other addresses they owe money\n    // mapping(address => address[]) owesMoneyTo;\n    mapping(address => User) userMapping;\n    Credit[] creditArray;\n\n    constructor() public {\n        address payable user1 = 0xf1234bBF19cd46B152A5f2A86C481C10C1436B3C;\n        address payable user2 = 0x6a18f2F25c9B87988c7280E586bD1fFa979aC7C7;\n        address payable user3 = 0xDE41c87eAD1B6Bf3BDc1a5F576476a800187aa06;\n\n        createUser(100, user1);\n        createUser(50, user2);\n        createUser(75, user3);\n\n        createCredit(user1, user2, 20, 1, block.timestamp + 10000);\n        createCredit(user2, user3, 15, 2, block.timestamp + 20000);\n    }\n\n    event UserCreated(address _address, uint256 balance, bool hasCredit);\n\n    event LogTransfer(address borrower, address lender, uint256 amt);\n\n    event CreditCreated(\n        address borrower,\n        address lender,\n        uint256 amount,\n        uint256 interest,\n        uint256 dateCreated\n    );\n\n    function removeFromCreditArr(uint index) internal {\n        require(index < creditArray.length);\n        creditArray[index] = creditArray[creditArray.length-1];\n        creditArray.pop();\n    }\n\n    function createUser(uint256 _balance, address payable _address) public {\n        userMapping[_address] = User(_address, _balance, false);\n        emit UserCreated(_address, _balance, false);\n    }\n\n    function createUser(uint256 _balance) public {\n        address payable sender = payable(msg.sender);\n        userMapping[msg.sender] = User(sender, _balance, false);\n        emit UserCreated(msg.sender, _balance, false);\n    }\n\n    function createCredit(\n        address borrower,\n        address lender,\n        uint256 amount,\n        uint256 interest,\n        uint256 repaymentDate\n    ) public {\n        User memory borrowerUser = userMapping[borrower];\n        User memory lenderUser = userMapping[lender];\n\n        require(borrowerUser.hasCredit == false);\n        require(lenderUser.balance >= amount);\n\n        uint256 currentDate = block.timestamp;\n\n        Credit credit = new Credit(\n            borrower,\n            lender,\n            amount,\n            interest,\n            currentDate,\n            repaymentDate\n        );\n        creditArray.push(credit);\n\n        emit CreditCreated(borrower, lender, amount, interest, currentDate);\n\n        transfer(borrower, lender, amount);\n    }\n\n    // needs to repay in full, no installments\n    // havent implemented interest functionality yet. just repaying in full\n    function repay(address borrower, address lender) public {\n        User memory borrowerUser = userMapping[borrower];\n\n        require(borrowerUser.hasCredit == true);\n\n        Credit credit;\n        bool foundInCreditArray = false;\n        uint index = 0;\n        Credit tempCredit;\n        // uint arraySize = sizeof(creditArray) / sizeof(creditArray[0]);\n\n        for (uint i=0; i < creditArray.length; i++) {\n            tempCredit = creditArray[i];\n            if (tempCredit.getBorrower() == borrower && tempCredit.getLender() == lender) {\n                credit = creditArray[i];\n                foundInCreditArray = true;\n                index = i;\n                break;\n            }\n        }\n\n        require(foundInCreditArray == true);\n        require(borrowerUser.balance >= credit.getAmount());\n\n        transfer(borrower, lender, credit.getAmount());\n        removeFromCreditArr(index);\n    }\n\n    // transfer funds\n    function transfer(\n        address _sender,\n        address _receiver,\n        uint256 amt\n    ) private {\n        User memory sender = userMapping[_sender];\n        User memory receiver = userMapping[_receiver];\n\n        receiver.balance -= amt;\n\n        sender.balance += amt;\n        sender.hasCredit = true;\n\n        userMapping[_sender] = sender;\n        userMapping[_receiver] = receiver;\n\n        emit LogTransfer(_sender, _receiver, amt);\n    }\n\n    function getCreditArray() public view returns(Credit[] memory) {\n        return creditArray;\n    }\n}\n",
  "sourcePath": "/Users/palaashkolhe/VSCode Projects/DeFi Lending and Borrowing/solidity-server/contracts/Exchange.sol",
  "compiler": {
    "name": "solc",
    "version": "0.6.0+commit.26b70077.Emscripten.clang"
  },
  "schemaVersion": "3.4.11",
  "updatedAt": "2022-12-04T04:15:24.710Z",
  "networkType": "ethereum",
  "devdoc": {
    "methods": {}
  },
  "userdoc": {
    "methods": {}
  }
}