{
  "contractName": "Exchange",
  "abi": [
    {
      "inputs": [],
      "stateMutability": "nonpayable",
      "type": "constructor"
    },
    {
      "anonymous": false,
      "inputs": [
        {
          "indexed": false,
          "internalType": "address",
          "name": "borrower",
          "type": "address"
        },
        {
          "indexed": false,
          "internalType": "address",
          "name": "lender",
          "type": "address"
        },
        {
          "indexed": false,
          "internalType": "uint256",
          "name": "amount",
          "type": "uint256"
        },
        {
          "indexed": false,
          "internalType": "uint256",
          "name": "interest",
          "type": "uint256"
        },
        {
          "indexed": false,
          "internalType": "uint256",
          "name": "dateCreated",
          "type": "uint256"
        }
      ],
      "name": "CreditCreated",
      "type": "event"
    },
    {
      "anonymous": false,
      "inputs": [
        {
          "indexed": false,
          "internalType": "address",
          "name": "borrower",
          "type": "address"
        },
        {
          "indexed": false,
          "internalType": "uint256",
          "name": "amount",
          "type": "uint256"
        },
        {
          "indexed": false,
          "internalType": "uint256",
          "name": "interest",
          "type": "uint256"
        },
        {
          "indexed": false,
          "internalType": "uint256",
          "name": "dateCreated",
          "type": "uint256"
        }
      ],
      "name": "LendRequestCreated",
      "type": "event"
    },
    {
      "anonymous": false,
      "inputs": [
        {
          "indexed": false,
          "internalType": "address",
          "name": "borrower",
          "type": "address"
        },
        {
          "indexed": false,
          "internalType": "address",
          "name": "lender",
          "type": "address"
        },
        {
          "indexed": false,
          "internalType": "uint256",
          "name": "amt",
          "type": "uint256"
        }
      ],
      "name": "LogTransfer",
      "type": "event"
    },
    {
      "anonymous": false,
      "inputs": [
        {
          "indexed": false,
          "internalType": "address",
          "name": "_address",
          "type": "address"
        },
        {
          "indexed": false,
          "internalType": "uint256",
          "name": "balance",
          "type": "uint256"
        },
        {
          "indexed": false,
          "internalType": "bool",
          "name": "hasCredit",
          "type": "bool"
        }
      ],
      "name": "UserCreated",
      "type": "event"
    },
    {
      "inputs": [
        {
          "internalType": "uint256",
          "name": "_balance",
          "type": "uint256"
        },
        {
          "internalType": "address payable",
          "name": "_address",
          "type": "address"
        }
      ],
      "name": "createUser",
      "outputs": [],
      "stateMutability": "nonpayable",
      "type": "function"
    },
    {
      "inputs": [
        {
          "internalType": "uint256",
          "name": "_balance",
          "type": "uint256"
        }
      ],
      "name": "createUser",
      "outputs": [],
      "stateMutability": "nonpayable",
      "type": "function"
    },
    {
      "inputs": [
        {
          "internalType": "address payable",
          "name": "lenderAddress",
          "type": "address"
        },
        {
          "internalType": "address",
          "name": "borrowerAddress",
          "type": "address"
        }
      ],
      "name": "setLenderForCredit",
      "outputs": [],
      "stateMutability": "nonpayable",
      "type": "function"
    },
    {
      "inputs": [
        {
          "internalType": "address",
          "name": "borrower",
          "type": "address"
        },
        {
          "internalType": "uint256",
          "name": "amount",
          "type": "uint256"
        },
        {
          "internalType": "uint256",
          "name": "interest",
          "type": "uint256"
        },
        {
          "internalType": "uint256",
          "name": "repaymentDate",
          "type": "uint256"
        }
      ],
      "name": "createRequestCredit",
      "outputs": [],
      "stateMutability": "nonpayable",
      "type": "function"
    },
    {
      "inputs": [
        {
          "internalType": "address",
          "name": "borrower",
          "type": "address"
        },
        {
          "internalType": "address",
          "name": "lender",
          "type": "address"
        }
      ],
      "name": "repay",
      "outputs": [],
      "stateMutability": "nonpayable",
      "type": "function"
    },
    {
      "inputs": [],
      "name": "getCreditArray",
      "outputs": [
        {
          "internalType": "contract Credit[]",
          "name": "",
          "type": "address[]"
        }
      ],
      "stateMutability": "view",
      "type": "function",
      "constant": true
    },
    {
      "inputs": [],
      "name": "getUsers",
      "outputs": [
        {
          "components": [
            {
              "internalType": "address payable",
              "name": "_address",
              "type": "address"
            },
            {
              "internalType": "uint256",
              "name": "balance",
              "type": "uint256"
            },
            {
              "internalType": "bool",
              "name": "hasCredit",
              "type": "bool"
            }
          ],
          "internalType": "struct Exchange.User[]",
          "name": "",
          "type": "tuple[]"
        }
      ],
      "stateMutability": "view",
      "type": "function",
      "constant": true
    }
  ],
  "bytecode": "0x60806040523480156200001157600080fd5b50600073c6cb3865420875b759c1168cb12a12d1a994fcb5905060007387ace434aa3e78e8e511f81afbbb23bb8b3cb8429050600073ecefdab55cb0a51072385659339dda31e4d68a3390506000735caf92acd39fff3965a3e1dd3e7791895205aa009050620000896064856200013260201b60201c565b6200009c6032846200013260201b60201c565b620000af604b836200013260201b60201c565b620000c26064826200013260201b60201c565b620000db8460018061271042016200030760201b60201c565b620000f483600280614e2042016200030760201b60201c565b6200010e82600d6002614e2042016200030760201b60201c565b620001288160056002614e2042016200030760201b60201c565b505050506200074f565b6200013c62000547565b60405180606001604052808373ffffffffffffffffffffffffffffffffffffffff168152602001848152602001600015158152509050806000808473ffffffffffffffffffffffffffffffffffffffff1673ffffffffffffffffffffffffffffffffffffffff16815260200190815260200160002060008201518160000160006101000a81548173ffffffffffffffffffffffffffffffffffffffff021916908373ffffffffffffffffffffffffffffffffffffffff1602179055506020820151816001015560408201518160020160006101000a81548160ff021916908315150217905550905050600181908060018154018082558091505060019003906000526020600020906003020160009091909190915060008201518160000160006101000a81548173ffffffffffffffffffffffffffffffffffffffff021916908373ffffffffffffffffffffffffffffffffffffffff1602179055506020820151816001015560408201518160020160006101000a81548160ff02191690831515021790555050507f168d1dc6cbc5a8412ac5349daf96c1b6f5f68e47a5a3c0d0a6d35666e109147c82846000604051620002fa93929190620005d2565b60405180910390a1505050565b6200031162000547565b6000808673ffffffffffffffffffffffffffffffffffffffff1673ffffffffffffffffffffffffffffffffffffffff1681526020019081526020016000206040518060600160405290816000820160009054906101000a900473ffffffffffffffffffffffffffffffffffffffff1673ffffffffffffffffffffffffffffffffffffffff1673ffffffffffffffffffffffffffffffffffffffff168152602001600182015481526020016002820160009054906101000a900460ff1615151515815250509050600015158160400151151514620003ed57600080fd5b60004290506000604051620004029062000580565b604051809103906000f0801580156200041f573d6000803e3d6000fd5b5090508073ffffffffffffffffffffffffffffffffffffffff1663aad3ff6b8860008989878a6040518763ffffffff1660e01b815260040162000468969594939291906200060f565b600060405180830381600087803b1580156200048357600080fd5b505af115801562000498573d6000803e3d6000fd5b505050506002819080600181540180825580915050600190039060005260206000200160009091909190916101000a81548173ffffffffffffffffffffffffffffffffffffffff021916908373ffffffffffffffffffffffffffffffffffffffff1602179055507fcc8d6b814d25aec56fb8db6aac3e45f546bb50581a718714fd7688ae52feeaec878787856040516200053694939291906200067c565b60405180910390a150505050505050565b6040518060600160405280600073ffffffffffffffffffffffffffffffffffffffff168152602001600081526020016000151581525090565b6105cc806200298083390190565b620005998162000713565b82525050565b620005aa81620006c9565b82525050565b620005bb81620006dd565b82525050565b620005cc8162000709565b82525050565b6000606082019050620005e960008301866200058e565b620005f86020830185620005c1565b620006076040830184620005b0565b949350505050565b600060c0820190506200062660008301896200059f565b6200063560208301886200058e565b620006446040830187620005c1565b620006536060830186620005c1565b620006626080830185620005c1565b6200067160a0830184620005c1565b979650505050505050565b60006080820190506200069360008301876200059f565b620006a26020830186620005c1565b620006b16040830185620005c1565b620006c06060830184620005c1565b95945050505050565b6000620006d682620006e9565b9050919050565b60008115159050919050565b600073ffffffffffffffffffffffffffffffffffffffff82169050919050565b6000819050919050565b6000620007208262000727565b9050919050565b600062000734826200073b565b9050919050565b60006200074882620006e9565b9050919050565b612221806200075f6000396000f3fe608060405234801561001057600080fd5b506004361061007c5760003560e01c8063b5d4d0801161005b578063b5d4d080146100d9578063b854b00f146100f5578063d005d07e14610111578063ffbdff661461012d5761007c565b8062ce8e3e146100815780635b87ae0f1461009f5780636ed671e8146100bd575b600080fd5b610089610149565b6040516100969190611a92565b60405180910390f35b6100a7610223565b6040516100b49190611a70565b60405180910390f35b6100d760048036036100d2919081019061161b565b6102b1565b005b6100f360048036036100ee9190810190611657565b6106e1565b005b61010f600480360361010a919081019061170c565b610915565b005b61012b600480360361012691908101906115df565b610ae6565b005b610147600480360361014291908101906116ba565b610ed3565b005b60606001805480602002602001604051908101604052809291908181526020016000905b8282101561021a57838290600052602060002090600302016040518060600160405290816000820160009054906101000a900473ffffffffffffffffffffffffffffffffffffffff1673ffffffffffffffffffffffffffffffffffffffff1673ffffffffffffffffffffffffffffffffffffffff168152602001600182015481526020016002820160009054906101000a900460ff1615151515815250508152602001906001019061016d565b50505050905090565b606060028054806020026020016040519081016040528092919081815260200182805480156102a757602002820191906000526020600020905b8160009054906101000a900473ffffffffffffffffffffffffffffffffffffffff1673ffffffffffffffffffffffffffffffffffffffff168152602001906001019080831161025d575b5050505050905090565b6102b9611507565b6000808473ffffffffffffffffffffffffffffffffffffffff1673ffffffffffffffffffffffffffffffffffffffff1681526020019081526020016000206040518060600160405290816000820160009054906101000a900473ffffffffffffffffffffffffffffffffffffffff1673ffffffffffffffffffffffffffffffffffffffff1673ffffffffffffffffffffffffffffffffffffffff168152602001600182015481526020016002820160009054906101000a900460ff161515151581525050905060011515816040015115151461039457600080fd5b600080600090506000809050600080600090505b6002805490508110156105a757600281815481106103c257fe5b9060005260206000200160009054906101000a900473ffffffffffffffffffffffffffffffffffffffff1691508773ffffffffffffffffffffffffffffffffffffffff168273ffffffffffffffffffffffffffffffffffffffff16631cb0c3e76040518163ffffffff1660e01b815260040160206040518083038186803b15801561044c57600080fd5b505afa158015610460573d6000803e3d6000fd5b505050506040513d601f19601f8201168201806040525061048491908101906115b6565b73ffffffffffffffffffffffffffffffffffffffff1614801561054f57508673ffffffffffffffffffffffffffffffffffffffff168273ffffffffffffffffffffffffffffffffffffffff16639861f3e56040518163ffffffff1660e01b815260040160206040518083038186803b1580156104ff57600080fd5b505afa158015610513573d6000803e3d6000fd5b505050506040513d601f19601f8201168201806040525061053791908101906115b6565b73ffffffffffffffffffffffffffffffffffffffff16145b1561059a576002818154811061056157fe5b9060005260206000200160009054906101000a900473ffffffffffffffffffffffffffffffffffffffff169450600193508092506105a7565b80806001019150506103a8565b5060011515831515146105b957600080fd5b8373ffffffffffffffffffffffffffffffffffffffff1663d321fe296040518163ffffffff1660e01b815260040160206040518083038186803b1580156105ff57600080fd5b505afa158015610613573d6000803e3d6000fd5b505050506040513d601f19601f8201168201806040525061063791908101906116e3565b8560200151101561064757600080fd5b6106cf87878673ffffffffffffffffffffffffffffffffffffffff1663d321fe296040518163ffffffff1660e01b815260040160206040518083038186803b15801561069257600080fd5b505afa1580156106a6573d6000803e3d6000fd5b505050506040513d601f19601f820116820180604052506106ca91908101906116e3565b6110a9565b6106d88261141e565b50505050505050565b6106e9611507565b6000808673ffffffffffffffffffffffffffffffffffffffff1673ffffffffffffffffffffffffffffffffffffffff1681526020019081526020016000206040518060600160405290816000820160009054906101000a900473ffffffffffffffffffffffffffffffffffffffff1673ffffffffffffffffffffffffffffffffffffffff1673ffffffffffffffffffffffffffffffffffffffff168152602001600182015481526020016002820160009054906101000a900460ff16151515158152505090506000151581604001511515146107c457600080fd5b600042905060006040516107d790611540565b604051809103906000f0801580156107f3573d6000803e3d6000fd5b5090508073ffffffffffffffffffffffffffffffffffffffff1663aad3ff6b8860008989878a6040518763ffffffff1660e01b815260040161083a96959493929190611993565b600060405180830381600087803b15801561085457600080fd5b505af1158015610868573d6000803e3d6000fd5b505050506002819080600181540180825580915050600190039060005260206000200160009091909190916101000a81548173ffffffffffffffffffffffffffffffffffffffff021916908373ffffffffffffffffffffffffffffffffffffffff1602179055507fcc8d6b814d25aec56fb8db6aac3e45f546bb50581a718714fd7688ae52feeaec878787856040516109049493929190611a2b565b60405180910390a150505050505050565b61091d611507565b60405180606001604052808373ffffffffffffffffffffffffffffffffffffffff168152602001848152602001600015158152509050806000808473ffffffffffffffffffffffffffffffffffffffff1673ffffffffffffffffffffffffffffffffffffffff16815260200190815260200160002060008201518160000160006101000a81548173ffffffffffffffffffffffffffffffffffffffff021916908373ffffffffffffffffffffffffffffffffffffffff1602179055506020820151816001015560408201518160020160006101000a81548160ff021916908315150217905550905050600181908060018154018082558091505060019003906000526020600020906003020160009091909190915060008201518160000160006101000a81548173ffffffffffffffffffffffffffffffffffffffff021916908373ffffffffffffffffffffffffffffffffffffffff1602179055506020820151816001015560408201518160020160006101000a81548160ff02191690831515021790555050507f168d1dc6cbc5a8412ac5349daf96c1b6f5f68e47a5a3c0d0a6d35666e109147c82846000604051610ad993929190611909565b60405180910390a1505050565b600080905060008090505b600180549050811015610b86578373ffffffffffffffffffffffffffffffffffffffff1660018281548110610b2257fe5b906000526020600020906003020160000160009054906101000a900473ffffffffffffffffffffffffffffffffffffffff1673ffffffffffffffffffffffffffffffffffffffff161415610b795760019150610b86565b8080600101915050610af1565b5080610b9857610b97606484610915565b5b60008090505b600280549050811015610ecd57600060028281548110610bba57fe5b9060005260206000200160009054906101000a900473ffffffffffffffffffffffffffffffffffffffff1690508373ffffffffffffffffffffffffffffffffffffffff168173ffffffffffffffffffffffffffffffffffffffff16631cb0c3e76040518163ffffffff1660e01b815260040160206040518083038186803b158015610c4457600080fd5b505afa158015610c58573d6000803e3d6000fd5b505050506040513d601f19601f82011682018060405250610c7c91908101906115b6565b73ffffffffffffffffffffffffffffffffffffffff161415610ebf578073ffffffffffffffffffffffffffffffffffffffff166346e368d4866040518263ffffffff1660e01b8152600401610cd191906118ee565b600060405180830381600087803b158015610ceb57600080fd5b505af1158015610cff573d6000803e3d6000fd5b505050507f38f6fd01ae8c8efcf8722b2c621f449c460264ae1f86d2b159dec70cac1a3ab284868373ffffffffffffffffffffffffffffffffffffffff1663d321fe296040518163ffffffff1660e01b815260040160206040518083038186803b158015610d6c57600080fd5b505afa158015610d80573d6000803e3d6000fd5b505050506040513d601f19601f82011682018060405250610da491908101906116e3565b8473ffffffffffffffffffffffffffffffffffffffff1663e5a4bed36040518163ffffffff1660e01b815260040160206040518083038186803b158015610dea57600080fd5b505afa158015610dfe573d6000803e3d6000fd5b505050506040513d601f19601f82011682018060405250610e2291908101906116e3565b8573ffffffffffffffffffffffffffffffffffffffff1663e76573986040518163ffffffff1660e01b815260040160206040518083038186803b158015610e6857600080fd5b505afa158015610e7c573d6000803e3d6000fd5b505050506040513d601f19601f82011682018060405250610ea091908101906116e3565b604051610eb1959493929190611940565b60405180910390a150610ecd565b508080600101915050610b9e565b50505050565b6000339050610ee0611507565b60405180606001604052808373ffffffffffffffffffffffffffffffffffffffff168152602001848152602001600015158152509050806000803373ffffffffffffffffffffffffffffffffffffffff1673ffffffffffffffffffffffffffffffffffffffff16815260200190815260200160002060008201518160000160006101000a81548173ffffffffffffffffffffffffffffffffffffffff021916908373ffffffffffffffffffffffffffffffffffffffff1602179055506020820151816001015560408201518160020160006101000a81548160ff021916908315150217905550905050600181908060018154018082558091505060019003906000526020600020906003020160009091909190915060008201518160000160006101000a81548173ffffffffffffffffffffffffffffffffffffffff021916908373ffffffffffffffffffffffffffffffffffffffff1602179055506020820151816001015560408201518160020160006101000a81548160ff02191690831515021790555050507f168d1dc6cbc5a8412ac5349daf96c1b6f5f68e47a5a3c0d0a6d35666e109147c3384600060405161109c93929190611909565b60405180910390a1505050565b6110b1611507565b6000808573ffffffffffffffffffffffffffffffffffffffff1673ffffffffffffffffffffffffffffffffffffffff1681526020019081526020016000206040518060600160405290816000820160009054906101000a900473ffffffffffffffffffffffffffffffffffffffff1673ffffffffffffffffffffffffffffffffffffffff1673ffffffffffffffffffffffffffffffffffffffff168152602001600182015481526020016002820160009054906101000a900460ff161515151581525050905061117f611507565b6000808573ffffffffffffffffffffffffffffffffffffffff1673ffffffffffffffffffffffffffffffffffffffff1681526020019081526020016000206040518060600160405290816000820160009054906101000a900473ffffffffffffffffffffffffffffffffffffffff1673ffffffffffffffffffffffffffffffffffffffff1673ffffffffffffffffffffffffffffffffffffffff168152602001600182015481526020016002820160009054906101000a900460ff161515151581525050905082816020018181510391508181525050828260200181815101915081815250506001826040019015159081151581525050816000808773ffffffffffffffffffffffffffffffffffffffff1673ffffffffffffffffffffffffffffffffffffffff16815260200190815260200160002060008201518160000160006101000a81548173ffffffffffffffffffffffffffffffffffffffff021916908373ffffffffffffffffffffffffffffffffffffffff1602179055506020820151816001015560408201518160020160006101000a81548160ff021916908315150217905550905050806000808673ffffffffffffffffffffffffffffffffffffffff1673ffffffffffffffffffffffffffffffffffffffff16815260200190815260200160002060008201518160000160006101000a81548173ffffffffffffffffffffffffffffffffffffffff021916908373ffffffffffffffffffffffffffffffffffffffff1602179055506020820151816001015560408201518160020160006101000a81548160ff0219169083151502179055509050507f0a85107a334eae0d22d21cdf13af0f8e8125039ec60baaa843d2c4c5b068017485858560405161140f939291906119f4565b60405180910390a15050505050565b600280549050811061142f57600080fd5b60026001600280549050038154811061144457fe5b9060005260206000200160009054906101000a900473ffffffffffffffffffffffffffffffffffffffff166002828154811061147c57fe5b9060005260206000200160006101000a81548173ffffffffffffffffffffffffffffffffffffffff021916908373ffffffffffffffffffffffffffffffffffffffff16021790555060028054806114cf57fe5b6001900381819060005260206000200160006101000a81549073ffffffffffffffffffffffffffffffffffffffff0219169055905550565b6040518060600160405280600073ffffffffffffffffffffffffffffffffffffffff168152602001600081526020016000151581525090565b6105cc80611c2083390190565b60008135905061155c81611bda565b92915050565b60008151905061157181611bda565b92915050565b60008135905061158681611bf1565b92915050565b60008135905061159b81611c08565b92915050565b6000815190506115b081611c08565b92915050565b6000602082840312156115c857600080fd5b60006115d684828501611562565b91505092915050565b600080604083850312156115f257600080fd5b600061160085828601611577565b92505060206116118582860161154d565b9150509250929050565b6000806040838503121561162e57600080fd5b600061163c8582860161154d565b925050602061164d8582860161154d565b9150509250929050565b6000806000806080858703121561166d57600080fd5b600061167b8782880161154d565b945050602061168c8782880161158c565b935050604061169d8782880161158c565b92505060606116ae8782880161158c565b91505092959194509250565b6000602082840312156116cc57600080fd5b60006116da8482850161158c565b91505092915050565b6000602082840312156116f557600080fd5b6000611703848285016115a1565b91505092915050565b6000806040838503121561171f57600080fd5b600061172d8582860161158c565b925050602061173e85828601611577565b9150509250929050565b6000611754838361187f565b60208301905092915050565b600061176c838361188e565b60608301905092915050565b61178181611b80565b82525050565b61179081611b38565b82525050565b61179f81611b26565b82525050565b60006117b082611ad4565b6117ba8185611b04565b93506117c583611ab4565b8060005b838110156117f65781516117dd8882611748565b97506117e883611aea565b9250506001810190506117c9565b5085935050505092915050565b600061180e82611adf565b6118188185611b15565b935061182383611ac4565b8060005b8381101561185457815161183b8882611760565b975061184683611af7565b925050600181019050611827565b5085935050505092915050565b61186a81611b4a565b82525050565b61187981611b4a565b82525050565b61188881611b92565b82525050565b6060820160008201516118a46000850182611787565b5060208201516118b760208501826118d0565b5060408201516118ca6040850182611861565b50505050565b6118d981611b76565b82525050565b6118e881611b76565b82525050565b60006020820190506119036000830184611778565b92915050565b600060608201905061191e6000830186611778565b61192b60208301856118df565b6119386040830184611870565b949350505050565b600060a0820190506119556000830188611796565b6119626020830187611778565b61196f60408301866118df565b61197c60608301856118df565b61198960808301846118df565b9695505050505050565b600060c0820190506119a86000830189611796565b6119b56020830188611778565b6119c260408301876118df565b6119cf60608301866118df565b6119dc60808301856118df565b6119e960a08301846118df565b979650505050505050565b6000606082019050611a096000830186611796565b611a166020830185611796565b611a2360408301846118df565b949350505050565b6000608082019050611a406000830187611796565b611a4d60208301866118df565b611a5a60408301856118df565b611a6760608301846118df565b95945050505050565b60006020820190508181036000830152611a8a81846117a5565b905092915050565b60006020820190508181036000830152611aac8184611803565b905092915050565b6000819050602082019050919050565b6000819050602082019050919050565b600081519050919050565b600081519050919050565b6000602082019050919050565b6000602082019050919050565b600082825260208201905092915050565b600082825260208201905092915050565b6000611b3182611b56565b9050919050565b6000611b4382611b56565b9050919050565b60008115159050919050565b600073ffffffffffffffffffffffffffffffffffffffff82169050919050565b6000819050919050565b6000611b8b82611bb6565b9050919050565b6000611b9d82611ba4565b9050919050565b6000611baf82611b56565b9050919050565b6000611bc182611bc8565b9050919050565b6000611bd382611b56565b9050919050565b611be381611b26565b8114611bee57600080fd5b50565b611bfa81611b38565b8114611c0557600080fd5b50565b611c1181611b76565b8114611c1c57600080fd5b5056fe60806040526000600660006101000a81548160ff02191690831515021790555034801561002b57600080fd5b506105918061003b6000396000f3fe608060405234801561001057600080fd5b50600436106100cf5760003560e01c8063aad3ff6b1161008c578063c392f76611610066578063c392f76614610326578063d321fe2914610344578063e5a4bed314610362578063e765739814610380576100cf565b8063aad3ff6b14610232578063b05f04d3146102be578063bcead63e146102dc576100cf565b80631cb0c3e7146100d45780631f741c7a1461011e57806346e368d41461013c5780637df1f1b9146101805780639861f3e5146101ca578063aa8c217c14610214575b600080fd5b6100dc61039e565b604051808273ffffffffffffffffffffffffffffffffffffffff1673ffffffffffffffffffffffffffffffffffffffff16815260200191505060405180910390f35b6101266103c7565b6040518082815260200191505060405180910390f35b61017e6004803603602081101561015257600080fd5b81019080803573ffffffffffffffffffffffffffffffffffffffff1690602001909291905050506103cd565b005b610188610411565b604051808273ffffffffffffffffffffffffffffffffffffffff1673ffffffffffffffffffffffffffffffffffffffff16815260200191505060405180910390f35b6101d2610436565b604051808273ffffffffffffffffffffffffffffffffffffffff1673ffffffffffffffffffffffffffffffffffffffff16815260200191505060405180910390f35b61021c610460565b6040518082815260200191505060405180910390f35b6102bc600480360360c081101561024857600080fd5b81019080803573ffffffffffffffffffffffffffffffffffffffff169060200190929190803573ffffffffffffffffffffffffffffffffffffffff16906020019092919080359060200190929190803590602001909291908035906020019092919080359060200190929190505050610466565b005b6102c661050b565b6040518082815260200191505060405180910390f35b6102e4610511565b604051808273ffffffffffffffffffffffffffffffffffffffff1673ffffffffffffffffffffffffffffffffffffffff16815260200191505060405180910390f35b61032e610537565b6040518082815260200191505060405180910390f35b61034c61053d565b6040518082815260200191505060405180910390f35b61036a610547565b6040518082815260200191505060405180910390f35b610388610551565b6040518082815260200191505060405180910390f35b60008060009054906101000a900473ffffffffffffffffffffffffffffffffffffffff16905090565b60045481565b80600160006101000a81548173ffffffffffffffffffffffffffffffffffffffff021916908373ffffffffffffffffffffffffffffffffffffffff16021790555050565b6000809054906101000a900473ffffffffffffffffffffffffffffffffffffffff1681565b6000600160009054906101000a900473ffffffffffffffffffffffffffffffffffffffff16905090565b60025481565b856000806101000a81548173ffffffffffffffffffffffffffffffffffffffff021916908373ffffffffffffffffffffffffffffffffffffffff16021790555084600160006101000a81548173ffffffffffffffffffffffffffffffffffffffff021916908373ffffffffffffffffffffffffffffffffffffffff16021790555083600281905550826003819055508160048190555080600581905550505050505050565b60055481565b600160009054906101000a900473ffffffffffffffffffffffffffffffffffffffff1681565b60035481565b6000600254905090565b6000600354905090565b600060045490509056fea264697066735822122043c029252dff66160b5ae0ea71476b64a2a99a7639a8445f3a35e96fd4fd5a7064736f6c63430006000033a2646970667358221220b212bcaff9f8427048f92790114c5e52e7c466893537c6174a88517eaddb253864736f6c6343000600003360806040526000600660006101000a81548160ff02191690831515021790555034801561002b57600080fd5b506105918061003b6000396000f3fe608060405234801561001057600080fd5b50600436106100cf5760003560e01c8063aad3ff6b1161008c578063c392f76611610066578063c392f76614610326578063d321fe2914610344578063e5a4bed314610362578063e765739814610380576100cf565b8063aad3ff6b14610232578063b05f04d3146102be578063bcead63e146102dc576100cf565b80631cb0c3e7146100d45780631f741c7a1461011e57806346e368d41461013c5780637df1f1b9146101805780639861f3e5146101ca578063aa8c217c14610214575b600080fd5b6100dc61039e565b604051808273ffffffffffffffffffffffffffffffffffffffff1673ffffffffffffffffffffffffffffffffffffffff16815260200191505060405180910390f35b6101266103c7565b6040518082815260200191505060405180910390f35b61017e6004803603602081101561015257600080fd5b81019080803573ffffffffffffffffffffffffffffffffffffffff1690602001909291905050506103cd565b005b610188610411565b604051808273ffffffffffffffffffffffffffffffffffffffff1673ffffffffffffffffffffffffffffffffffffffff16815260200191505060405180910390f35b6101d2610436565b604051808273ffffffffffffffffffffffffffffffffffffffff1673ffffffffffffffffffffffffffffffffffffffff16815260200191505060405180910390f35b61021c610460565b6040518082815260200191505060405180910390f35b6102bc600480360360c081101561024857600080fd5b81019080803573ffffffffffffffffffffffffffffffffffffffff169060200190929190803573ffffffffffffffffffffffffffffffffffffffff16906020019092919080359060200190929190803590602001909291908035906020019092919080359060200190929190505050610466565b005b6102c661050b565b6040518082815260200191505060405180910390f35b6102e4610511565b604051808273ffffffffffffffffffffffffffffffffffffffff1673ffffffffffffffffffffffffffffffffffffffff16815260200191505060405180910390f35b61032e610537565b6040518082815260200191505060405180910390f35b61034c61053d565b6040518082815260200191505060405180910390f35b61036a610547565b6040518082815260200191505060405180910390f35b610388610551565b6040518082815260200191505060405180910390f35b60008060009054906101000a900473ffffffffffffffffffffffffffffffffffffffff16905090565b60045481565b80600160006101000a81548173ffffffffffffffffffffffffffffffffffffffff021916908373ffffffffffffffffffffffffffffffffffffffff16021790555050565b6000809054906101000a900473ffffffffffffffffffffffffffffffffffffffff1681565b6000600160009054906101000a900473ffffffffffffffffffffffffffffffffffffffff16905090565b60025481565b856000806101000a81548173ffffffffffffffffffffffffffffffffffffffff021916908373ffffffffffffffffffffffffffffffffffffffff16021790555084600160006101000a81548173ffffffffffffffffffffffffffffffffffffffff021916908373ffffffffffffffffffffffffffffffffffffffff16021790555083600281905550826003819055508160048190555080600581905550505050505050565b60055481565b600160009054906101000a900473ffffffffffffffffffffffffffffffffffffffff1681565b60035481565b6000600254905090565b6000600354905090565b600060045490509056fea264697066735822122043c029252dff66160b5ae0ea71476b64a2a99a7639a8445f3a35e96fd4fd5a7064736f6c63430006000033",
  "source": "pragma solidity >=0.4.22 <0.9.0;\npragma experimental ABIEncoderV2;\n\nimport \"./Credit.sol\";\n\ncontract Exchange {\n    struct User {\n        address payable _address;\n        uint256 balance;\n        bool hasCredit;\n    }\n\n    // maps address of a user to the other addresses they owe money\n    // mapping(address => address[]) owesMoneyTo;\n    mapping(address => User) userMapping;\n    User[] userArray;\n    Credit[] creditArray;\n\n    constructor() public {\n        address payable user1 = 0xC6CB3865420875B759c1168cB12a12D1a994fcb5;\n        address payable user2 = 0x87acE434aa3e78E8E511F81aFbbB23bb8b3CB842;\n        address payable user3 = 0xecefDab55cB0A51072385659339DDA31e4D68A33;\n        address payable user4 = 0x5Caf92ACD39FfF3965a3E1Dd3E7791895205aa00;\n\n        createUser(100, user1);\n        createUser(50, user2);\n        createUser(75, user3);\n        createUser(100, user4);\n\n        createRequestCredit(user1, 1, 1, block.timestamp + 10000);\n        createRequestCredit(user2, 2, 2, block.timestamp + 20000);\n        createRequestCredit(user3, 13, 2, block.timestamp + 20000);\n        createRequestCredit(user4, 5, 2, block.timestamp + 20000);\n    }\n\n    event UserCreated(address _address, uint256 balance, bool hasCredit);\n\n    event LogTransfer(address borrower, address lender, uint256 amt);\n\n    event CreditCreated(\n        address borrower,\n        address lender,\n        uint256 amount,\n        uint256 interest,\n        uint256 dateCreated\n    );\n\n    event LendRequestCreated(\n        address borrower,\n        uint256 amount,\n        uint256 interest,\n        uint256 dateCreated\n    );\n\n    function removeFromCreditArr(uint256 index) internal {\n        require(index < creditArray.length);\n        creditArray[index] = creditArray[creditArray.length - 1];\n        creditArray.pop();\n    }\n\n    function createUser(uint256 _balance, address payable _address) public {\n        User memory tempUser = User(_address, _balance, false);\n        userMapping[_address] = tempUser;\n        userArray.push(tempUser);\n        emit UserCreated(_address, _balance, false);\n    }\n\n    function createUser(uint256 _balance) public {\n        address payable sender = payable(msg.sender);\n        User memory tempUser = User(sender, _balance, false);\n        userMapping[msg.sender] = tempUser;\n        userArray.push(tempUser);\n        emit UserCreated(msg.sender, _balance, false);\n    }\n\n    // function createCredit(\n    //     address borrower,\n    //     address lender,\n    //     uint256 amount,\n    //     uint256 interest,\n    //     uint256 repaymentDate\n    // ) public {\n    //     User memory borrowerUser = userMapping[borrower];\n    //     User memory lenderUser = userMapping[lender];\n\n    //     require(borrowerUser.hasCredit == false);\n    //     require(lenderUser.balance >= amount);\n\n    //     uint256 currentDate = block.timestamp;\n\n    //     Credit credit = new Credit();\n    //     credit.initializeCredit(\n    //         borrower,\n    //         lender,\n    //         amount,\n    //         interest,\n    //         currentDate,\n    //         repaymentDate\n    //     );\n    //     creditArray.push(credit);\n\n    //     emit CreditCreated(borrower, lender, amount, interest, currentDate);\n\n    //     transfer(borrower, lender, amount);\n    // }\n\n    function setLenderForCredit(\n        address payable lenderAddress,\n        address borrowerAddress\n    ) public {\n        bool found = false;\n        for (uint256 i = 0; i < userArray.length; i++) {\n            if (userArray[i]._address == lenderAddress) {\n                found = true;\n                break;\n            }\n        }\n        if (!found) {\n            createUser(100, lenderAddress);\n        }\n\n        for (uint256 i = 0; i < creditArray.length; i++) {\n            Credit credit = creditArray[i];\n            if (credit.getBorrower() == borrowerAddress) {\n                credit.setLender(lenderAddress);\n                emit CreditCreated(\n                    borrowerAddress,\n                    lenderAddress,\n                    credit.getAmount(),\n                    credit.getInterest(),\n                    credit.getDateCreated()\n                );\n                break;\n            }\n        }\n    }\n\n    function createRequestCredit(\n        address borrower,\n        uint256 amount,\n        uint256 interest,\n        uint256 repaymentDate\n    ) public {\n        User memory borrowerUser = userMapping[borrower];\n\n        require(borrowerUser.hasCredit == false);\n\n        uint256 currentDate = block.timestamp;\n\n        Credit credit = new Credit();\n        credit.initializeCredit(\n            borrower,\n            address(0),\n            amount,\n            interest,\n            currentDate,\n            repaymentDate\n        );\n        creditArray.push(credit);\n\n        emit LendRequestCreated(borrower, amount, interest, currentDate);\n    }\n\n    // needs to repay in full, no installments\n    // havent implemented interest functionality yet. just repaying in full\n    function repay(address borrower, address lender) public {\n        User memory borrowerUser = userMapping[borrower];\n\n        require(borrowerUser.hasCredit == true);\n\n        Credit credit;\n        bool foundInCreditArray = false;\n        uint256 index = 0;\n        Credit tempCredit;\n        // uint arraySize = sizeof(creditArray) / sizeof(creditArray[0]);\n\n        for (uint256 i = 0; i < creditArray.length; i++) {\n            tempCredit = creditArray[i];\n            if (\n                tempCredit.getBorrower() == borrower &&\n                tempCredit.getLender() == lender\n            ) {\n                credit = creditArray[i];\n                foundInCreditArray = true;\n                index = i;\n                break;\n            }\n        }\n\n        require(foundInCreditArray == true);\n        require(borrowerUser.balance >= credit.getAmount());\n\n        transfer(borrower, lender, credit.getAmount());\n        removeFromCreditArr(index);\n    }\n\n    // transfer funds\n    function transfer(\n        address _sender,\n        address _receiver,\n        uint256 amt\n    ) private {\n        User memory sender = userMapping[_sender];\n        User memory receiver = userMapping[_receiver];\n\n        receiver.balance -= amt;\n\n        sender.balance += amt;\n        sender.hasCredit = true;\n\n        userMapping[_sender] = sender;\n        userMapping[_receiver] = receiver;\n\n        emit LogTransfer(_sender, _receiver, amt);\n    }\n\n    function getCreditArray() public view returns (Credit[] memory) {\n        return creditArray;\n    }\n\n    function getUsers() public view returns (User[] memory) {\n        return userArray;\n    }\n}\n",
  "sourcePath": "/Users/palaashkolhe/VSCode Projects/DeFi Lending and Borrowing/solidity-server/contracts/Exchange.sol",
  "compiler": {
    "name": "solc",
    "version": "0.6.0+commit.26b70077.Emscripten.clang"
  },
  "schemaVersion": "3.4.11",
  "updatedAt": "2023-01-26T06:31:18.651Z",
  "networkType": "ethereum",
  "devdoc": {
    "methods": {}
  },
  "userdoc": {
    "methods": {}
  }
}