{
  "contractName": "Exchange",
  "abi": [
    {
      "inputs": [],
      "stateMutability": "nonpayable",
      "type": "constructor"
    },
    {
      "anonymous": false,
      "inputs": [
        {
          "indexed": false,
          "internalType": "address",
          "name": "borrower",
          "type": "address"
        },
        {
          "indexed": false,
          "internalType": "address",
          "name": "lender",
          "type": "address"
        },
        {
          "indexed": false,
          "internalType": "uint256",
          "name": "amount",
          "type": "uint256"
        },
        {
          "indexed": false,
          "internalType": "uint256",
          "name": "interest",
          "type": "uint256"
        },
        {
          "indexed": false,
          "internalType": "uint256",
          "name": "dateCreated",
          "type": "uint256"
        }
      ],
      "name": "CreditCreated",
      "type": "event"
    },
    {
      "anonymous": false,
      "inputs": [
        {
          "indexed": false,
          "internalType": "address",
          "name": "borrower",
          "type": "address"
        },
        {
          "indexed": false,
          "internalType": "address",
          "name": "lender",
          "type": "address"
        },
        {
          "indexed": false,
          "internalType": "uint256",
          "name": "amt",
          "type": "uint256"
        }
      ],
      "name": "LogTransfer",
      "type": "event"
    },
    {
      "anonymous": false,
      "inputs": [
        {
          "indexed": false,
          "internalType": "address",
          "name": "_address",
          "type": "address"
        },
        {
          "indexed": false,
          "internalType": "uint256",
          "name": "balance",
          "type": "uint256"
        },
        {
          "indexed": false,
          "internalType": "bool",
          "name": "hasCredit",
          "type": "bool"
        }
      ],
      "name": "UserCreated",
      "type": "event"
    },
    {
      "inputs": [
        {
          "internalType": "uint256",
          "name": "_balance",
          "type": "uint256"
        },
        {
          "internalType": "address payable",
          "name": "_address",
          "type": "address"
        }
      ],
      "name": "createUser",
      "outputs": [],
      "stateMutability": "nonpayable",
      "type": "function"
    },
    {
      "inputs": [
        {
          "internalType": "uint256",
          "name": "_balance",
          "type": "uint256"
        }
      ],
      "name": "createUser",
      "outputs": [],
      "stateMutability": "nonpayable",
      "type": "function"
    },
    {
      "inputs": [
        {
          "internalType": "address",
          "name": "borrower",
          "type": "address"
        },
        {
          "internalType": "address",
          "name": "lender",
          "type": "address"
        },
        {
          "internalType": "uint256",
          "name": "amount",
          "type": "uint256"
        },
        {
          "internalType": "uint256",
          "name": "interest",
          "type": "uint256"
        },
        {
          "internalType": "uint256",
          "name": "repaymentDate",
          "type": "uint256"
        }
      ],
      "name": "createCredit",
      "outputs": [],
      "stateMutability": "nonpayable",
      "type": "function"
    },
    {
      "inputs": [
        {
          "internalType": "address",
          "name": "borrower",
          "type": "address"
        },
        {
          "internalType": "address",
          "name": "lender",
          "type": "address"
        }
      ],
      "name": "repay",
      "outputs": [],
      "stateMutability": "nonpayable",
      "type": "function"
    },
    {
      "inputs": [],
      "name": "getCreditArray",
      "outputs": [
        {
          "internalType": "contract Credit[]",
          "name": "",
          "type": "address[]"
        }
      ],
      "stateMutability": "view",
      "type": "function",
      "constant": true
    },
    {
      "inputs": [],
      "name": "getUsers",
      "outputs": [
        {
          "components": [
            {
              "internalType": "address payable",
              "name": "_address",
              "type": "address"
            },
            {
              "internalType": "uint256",
              "name": "balance",
              "type": "uint256"
            },
            {
              "internalType": "bool",
              "name": "hasCredit",
              "type": "bool"
            }
          ],
          "internalType": "struct Exchange.User[]",
          "name": "",
          "type": "tuple[]"
        }
      ],
      "stateMutability": "view",
      "type": "function",
      "constant": true
    }
  ],
  "bytecode": "0x60806040523480156200001157600080fd5b50600073c6cb3865420875b759c1168cb12a12d1a994fcb5905060007387ace434aa3e78e8e511f81afbbb23bb8b3cb842905060007320dde2b1aa9776ac7d48a9b37d87e3f84c85b54d905062000070606484620000d560201b60201c565b62000083603283620000d560201b60201c565b62000096604b82620000d560201b60201c565b620000b18383601460016127104201620002aa60201b60201c565b620000cc8282600f6002614e204201620002aa60201b60201c565b50505062000bb2565b620000df6200095d565b60405180606001604052808373ffffffffffffffffffffffffffffffffffffffff168152602001848152602001600015158152509050806000808473ffffffffffffffffffffffffffffffffffffffff1673ffffffffffffffffffffffffffffffffffffffff16815260200190815260200160002060008201518160000160006101000a81548173ffffffffffffffffffffffffffffffffffffffff021916908373ffffffffffffffffffffffffffffffffffffffff1602179055506020820151816001015560408201518160020160006101000a81548160ff021916908315150217905550905050600181908060018154018082558091505060019003906000526020600020906003020160009091909190915060008201518160000160006101000a81548173ffffffffffffffffffffffffffffffffffffffff021916908373ffffffffffffffffffffffffffffffffffffffff1602179055506020820151816001015560408201518160020160006101000a81548160ff02191690831515021790555050507f168d1dc6cbc5a8412ac5349daf96c1b6f5f68e47a5a3c0d0a6d35666e109147c828460006040516200029d93929190620009e8565b60405180910390a1505050565b620002b46200095d565b6000808773ffffffffffffffffffffffffffffffffffffffff1673ffffffffffffffffffffffffffffffffffffffff1681526020019081526020016000206040518060600160405290816000820160009054906101000a900473ffffffffffffffffffffffffffffffffffffffff1673ffffffffffffffffffffffffffffffffffffffff1673ffffffffffffffffffffffffffffffffffffffff168152602001600182015481526020016002820160009054906101000a900460ff1615151515815250509050620003846200095d565b6000808773ffffffffffffffffffffffffffffffffffffffff1673ffffffffffffffffffffffffffffffffffffffff1681526020019081526020016000206040518060600160405290816000820160009054906101000a900473ffffffffffffffffffffffffffffffffffffffff1673ffffffffffffffffffffffffffffffffffffffff1673ffffffffffffffffffffffffffffffffffffffff168152602001600182015481526020016002820160009054906101000a900460ff16151515158152505090506000151582604001511515146200046057600080fd5b84816020015110156200047257600080fd5b60004290506000604051620004879062000996565b604051809103906000f080158015620004a4573d6000803e3d6000fd5b5090508073ffffffffffffffffffffffffffffffffffffffff1663aad3ff6b8a8a8a8a878b6040518763ffffffff1660e01b8152600401620004ec9695949392919062000abf565b600060405180830381600087803b1580156200050757600080fd5b505af11580156200051c573d6000803e3d6000fd5b505050506002819080600181540180825580915050600190039060005260206000200160009091909190916101000a81548173ffffffffffffffffffffffffffffffffffffffff021916908373ffffffffffffffffffffffffffffffffffffffff1602179055507f38f6fd01ae8c8efcf8722b2c621f449c460264ae1f86d2b159dec70cac1a3ab28989898986604051620005bc95949392919062000a62565b60405180910390a1620005d7898989620005e260201b60201c565b505050505050505050565b620005ec6200095d565b6000808573ffffffffffffffffffffffffffffffffffffffff1673ffffffffffffffffffffffffffffffffffffffff1681526020019081526020016000206040518060600160405290816000820160009054906101000a900473ffffffffffffffffffffffffffffffffffffffff1673ffffffffffffffffffffffffffffffffffffffff1673ffffffffffffffffffffffffffffffffffffffff168152602001600182015481526020016002820160009054906101000a900460ff1615151515815250509050620006bc6200095d565b6000808573ffffffffffffffffffffffffffffffffffffffff1673ffffffffffffffffffffffffffffffffffffffff1681526020019081526020016000206040518060600160405290816000820160009054906101000a900473ffffffffffffffffffffffffffffffffffffffff1673ffffffffffffffffffffffffffffffffffffffff1673ffffffffffffffffffffffffffffffffffffffff168152602001600182015481526020016002820160009054906101000a900460ff161515151581525050905082816020018181510391508181525050828260200181815101915081815250506001826040019015159081151581525050816000808773ffffffffffffffffffffffffffffffffffffffff1673ffffffffffffffffffffffffffffffffffffffff16815260200190815260200160002060008201518160000160006101000a81548173ffffffffffffffffffffffffffffffffffffffff021916908373ffffffffffffffffffffffffffffffffffffffff1602179055506020820151816001015560408201518160020160006101000a81548160ff021916908315150217905550905050806000808673ffffffffffffffffffffffffffffffffffffffff1673ffffffffffffffffffffffffffffffffffffffff16815260200190815260200160002060008201518160000160006101000a81548173ffffffffffffffffffffffffffffffffffffffff021916908373ffffffffffffffffffffffffffffffffffffffff1602179055506020820151816001015560408201518160020160006101000a81548160ff0219169083151502179055509050507f0a85107a334eae0d22d21cdf13af0f8e8125039ec60baaa843d2c4c5b06801748585856040516200094e9392919062000a25565b60405180910390a15050505050565b6040518060600160405280600073ffffffffffffffffffffffffffffffffffffffff168152602001600081526020016000151581525090565b6104c3806200291b83390190565b620009af8162000b76565b82525050565b620009c08162000b2c565b82525050565b620009d18162000b40565b82525050565b620009e28162000b6c565b82525050565b6000606082019050620009ff6000830186620009a4565b62000a0e6020830185620009d7565b62000a1d6040830184620009c6565b949350505050565b600060608201905062000a3c6000830186620009b5565b62000a4b6020830185620009b5565b62000a5a6040830184620009d7565b949350505050565b600060a08201905062000a796000830188620009b5565b62000a886020830187620009b5565b62000a976040830186620009d7565b62000aa66060830185620009d7565b62000ab56080830184620009d7565b9695505050505050565b600060c08201905062000ad66000830189620009b5565b62000ae56020830188620009b5565b62000af46040830187620009d7565b62000b036060830186620009d7565b62000b126080830185620009d7565b62000b2160a0830184620009d7565b979650505050505050565b600062000b398262000b4c565b9050919050565b60008115159050919050565b600073ffffffffffffffffffffffffffffffffffffffff82169050919050565b6000819050919050565b600062000b838262000b8a565b9050919050565b600062000b978262000b9e565b9050919050565b600062000bab8262000b4c565b9050919050565b611d598062000bc26000396000f3fe608060405234801561001057600080fd5b50600436106100615760003560e01c8062ce8e3e146100665780635b87ae0f146100845780636ed671e8146100a25780639881086b146100be578063b854b00f146100da578063ffbdff66146100f6575b600080fd5b61006e610112565b60405161007b91906116d3565b60405180910390f35b61008c6101ec565b60405161009991906116b1565b60405180910390f35b6100bc60048036036100b791908101906112a8565b61027a565b005b6100d860048036036100d391908101906112e4565b6106aa565b005b6100f460048036036100ef91908101906113ad565b6109cb565b005b610110600480360361010b919081019061135b565b610b9c565b005b60606001805480602002602001604051908101604052809291908181526020016000905b828210156101e357838290600052602060002090600302016040518060600160405290816000820160009054906101000a900473ffffffffffffffffffffffffffffffffffffffff1673ffffffffffffffffffffffffffffffffffffffff1673ffffffffffffffffffffffffffffffffffffffff168152602001600182015481526020016002820160009054906101000a900460ff16151515158152505081526020019060010190610136565b50505050905090565b6060600280548060200260200160405190810160405280929190818152602001828054801561027057602002820191906000526020600020905b8160009054906101000a900473ffffffffffffffffffffffffffffffffffffffff1673ffffffffffffffffffffffffffffffffffffffff1681526020019060010190808311610226575b5050505050905090565b6102826111d0565b6000808473ffffffffffffffffffffffffffffffffffffffff1673ffffffffffffffffffffffffffffffffffffffff1681526020019081526020016000206040518060600160405290816000820160009054906101000a900473ffffffffffffffffffffffffffffffffffffffff1673ffffffffffffffffffffffffffffffffffffffff1673ffffffffffffffffffffffffffffffffffffffff168152602001600182015481526020016002820160009054906101000a900460ff161515151581525050905060011515816040015115151461035d57600080fd5b600080600090506000809050600080600090505b600280549050811015610570576002818154811061038b57fe5b9060005260206000200160009054906101000a900473ffffffffffffffffffffffffffffffffffffffff1691508773ffffffffffffffffffffffffffffffffffffffff168273ffffffffffffffffffffffffffffffffffffffff16631cb0c3e76040518163ffffffff1660e01b815260040160206040518083038186803b15801561041557600080fd5b505afa158015610429573d6000803e3d6000fd5b505050506040513d601f19601f8201168201806040525061044d919081019061127f565b73ffffffffffffffffffffffffffffffffffffffff1614801561051857508673ffffffffffffffffffffffffffffffffffffffff168273ffffffffffffffffffffffffffffffffffffffff16639861f3e56040518163ffffffff1660e01b815260040160206040518083038186803b1580156104c857600080fd5b505afa1580156104dc573d6000803e3d6000fd5b505050506040513d601f19601f82011682018060405250610500919081019061127f565b73ffffffffffffffffffffffffffffffffffffffff16145b15610563576002818154811061052a57fe5b9060005260206000200160009054906101000a900473ffffffffffffffffffffffffffffffffffffffff16945060019350809250610570565b8080600101915050610371565b50600115158315151461058257600080fd5b8373ffffffffffffffffffffffffffffffffffffffff1663d321fe296040518163ffffffff1660e01b815260040160206040518083038186803b1580156105c857600080fd5b505afa1580156105dc573d6000803e3d6000fd5b505050506040513d601f19601f820116820180604052506106009190810190611384565b8560200151101561061057600080fd5b61069887878673ffffffffffffffffffffffffffffffffffffffff1663d321fe296040518163ffffffff1660e01b815260040160206040518083038186803b15801561065b57600080fd5b505afa15801561066f573d6000803e3d6000fd5b505050506040513d601f19601f820116820180604052506106939190810190611384565b610d72565b6106a1826110e7565b50505050505050565b6106b26111d0565b6000808773ffffffffffffffffffffffffffffffffffffffff1673ffffffffffffffffffffffffffffffffffffffff1681526020019081526020016000206040518060600160405290816000820160009054906101000a900473ffffffffffffffffffffffffffffffffffffffff1673ffffffffffffffffffffffffffffffffffffffff1673ffffffffffffffffffffffffffffffffffffffff168152602001600182015481526020016002820160009054906101000a900460ff16151515158152505090506107806111d0565b6000808773ffffffffffffffffffffffffffffffffffffffff1673ffffffffffffffffffffffffffffffffffffffff1681526020019081526020016000206040518060600160405290816000820160009054906101000a900473ffffffffffffffffffffffffffffffffffffffff1673ffffffffffffffffffffffffffffffffffffffff1673ffffffffffffffffffffffffffffffffffffffff168152602001600182015481526020016002820160009054906101000a900460ff161515151581525050905060001515826040015115151461085b57600080fd5b848160200151101561086c57600080fd5b6000429050600060405161087f90611209565b604051809103906000f08015801561089b573d6000803e3d6000fd5b5090508073ffffffffffffffffffffffffffffffffffffffff1663aad3ff6b8a8a8a8a878b6040518763ffffffff1660e01b81526004016108e196959493929190611650565b600060405180830381600087803b1580156108fb57600080fd5b505af115801561090f573d6000803e3d6000fd5b505050506002819080600181540180825580915050600190039060005260206000200160009091909190916101000a81548173ffffffffffffffffffffffffffffffffffffffff021916908373ffffffffffffffffffffffffffffffffffffffff1602179055507f38f6fd01ae8c8efcf8722b2c621f449c460264ae1f86d2b159dec70cac1a3ab289898989866040516109ad9594939291906115fd565b60405180910390a16109c0898989610d72565b505050505050505050565b6109d36111d0565b60405180606001604052808373ffffffffffffffffffffffffffffffffffffffff168152602001848152602001600015158152509050806000808473ffffffffffffffffffffffffffffffffffffffff1673ffffffffffffffffffffffffffffffffffffffff16815260200190815260200160002060008201518160000160006101000a81548173ffffffffffffffffffffffffffffffffffffffff021916908373ffffffffffffffffffffffffffffffffffffffff1602179055506020820151816001015560408201518160020160006101000a81548160ff021916908315150217905550905050600181908060018154018082558091505060019003906000526020600020906003020160009091909190915060008201518160000160006101000a81548173ffffffffffffffffffffffffffffffffffffffff021916908373ffffffffffffffffffffffffffffffffffffffff1602179055506020820151816001015560408201518160020160006101000a81548160ff02191690831515021790555050507f168d1dc6cbc5a8412ac5349daf96c1b6f5f68e47a5a3c0d0a6d35666e109147c82846000604051610b8f9392919061158f565b60405180910390a1505050565b6000339050610ba96111d0565b60405180606001604052808373ffffffffffffffffffffffffffffffffffffffff168152602001848152602001600015158152509050806000803373ffffffffffffffffffffffffffffffffffffffff1673ffffffffffffffffffffffffffffffffffffffff16815260200190815260200160002060008201518160000160006101000a81548173ffffffffffffffffffffffffffffffffffffffff021916908373ffffffffffffffffffffffffffffffffffffffff1602179055506020820151816001015560408201518160020160006101000a81548160ff021916908315150217905550905050600181908060018154018082558091505060019003906000526020600020906003020160009091909190915060008201518160000160006101000a81548173ffffffffffffffffffffffffffffffffffffffff021916908373ffffffffffffffffffffffffffffffffffffffff1602179055506020820151816001015560408201518160020160006101000a81548160ff02191690831515021790555050507f168d1dc6cbc5a8412ac5349daf96c1b6f5f68e47a5a3c0d0a6d35666e109147c33846000604051610d659392919061158f565b60405180910390a1505050565b610d7a6111d0565b6000808573ffffffffffffffffffffffffffffffffffffffff1673ffffffffffffffffffffffffffffffffffffffff1681526020019081526020016000206040518060600160405290816000820160009054906101000a900473ffffffffffffffffffffffffffffffffffffffff1673ffffffffffffffffffffffffffffffffffffffff1673ffffffffffffffffffffffffffffffffffffffff168152602001600182015481526020016002820160009054906101000a900460ff1615151515815250509050610e486111d0565b6000808573ffffffffffffffffffffffffffffffffffffffff1673ffffffffffffffffffffffffffffffffffffffff1681526020019081526020016000206040518060600160405290816000820160009054906101000a900473ffffffffffffffffffffffffffffffffffffffff1673ffffffffffffffffffffffffffffffffffffffff1673ffffffffffffffffffffffffffffffffffffffff168152602001600182015481526020016002820160009054906101000a900460ff161515151581525050905082816020018181510391508181525050828260200181815101915081815250506001826040019015159081151581525050816000808773ffffffffffffffffffffffffffffffffffffffff1673ffffffffffffffffffffffffffffffffffffffff16815260200190815260200160002060008201518160000160006101000a81548173ffffffffffffffffffffffffffffffffffffffff021916908373ffffffffffffffffffffffffffffffffffffffff1602179055506020820151816001015560408201518160020160006101000a81548160ff021916908315150217905550905050806000808673ffffffffffffffffffffffffffffffffffffffff1673ffffffffffffffffffffffffffffffffffffffff16815260200190815260200160002060008201518160000160006101000a81548173ffffffffffffffffffffffffffffffffffffffff021916908373ffffffffffffffffffffffffffffffffffffffff1602179055506020820151816001015560408201518160020160006101000a81548160ff0219169083151502179055509050507f0a85107a334eae0d22d21cdf13af0f8e8125039ec60baaa843d2c4c5b06801748585856040516110d8939291906115c6565b60405180910390a15050505050565b60028054905081106110f857600080fd5b60026001600280549050038154811061110d57fe5b9060005260206000200160009054906101000a900473ffffffffffffffffffffffffffffffffffffffff166002828154811061114557fe5b9060005260206000200160006101000a81548173ffffffffffffffffffffffffffffffffffffffff021916908373ffffffffffffffffffffffffffffffffffffffff160217905550600280548061119857fe5b6001900381819060005260206000200160006101000a81549073ffffffffffffffffffffffffffffffffffffffff0219169055905550565b6040518060600160405280600073ffffffffffffffffffffffffffffffffffffffff168152602001600081526020016000151581525090565b6104c38061186183390190565b6000813590506112258161181b565b92915050565b60008151905061123a8161181b565b92915050565b60008135905061124f81611832565b92915050565b60008135905061126481611849565b92915050565b60008151905061127981611849565b92915050565b60006020828403121561129157600080fd5b600061129f8482850161122b565b91505092915050565b600080604083850312156112bb57600080fd5b60006112c985828601611216565b92505060206112da85828601611216565b9150509250929050565b600080600080600060a086880312156112fc57600080fd5b600061130a88828901611216565b955050602061131b88828901611216565b945050604061132c88828901611255565b935050606061133d88828901611255565b925050608061134e88828901611255565b9150509295509295909350565b60006020828403121561136d57600080fd5b600061137b84828501611255565b91505092915050565b60006020828403121561139657600080fd5b60006113a48482850161126a565b91505092915050565b600080604083850312156113c057600080fd5b60006113ce85828601611255565b92505060206113df85828601611240565b9150509250929050565b60006113f58383611520565b60208301905092915050565b600061140d838361152f565b60608301905092915050565b611422816117c1565b82525050565b61143181611779565b82525050565b61144081611767565b82525050565b600061145182611715565b61145b8185611745565b9350611466836116f5565b8060005b8381101561149757815161147e88826113e9565b97506114898361172b565b92505060018101905061146a565b5085935050505092915050565b60006114af82611720565b6114b98185611756565b93506114c483611705565b8060005b838110156114f55781516114dc8882611401565b97506114e783611738565b9250506001810190506114c8565b5085935050505092915050565b61150b8161178b565b82525050565b61151a8161178b565b82525050565b611529816117d3565b82525050565b6060820160008201516115456000850182611428565b5060208201516115586020850182611571565b50604082015161156b6040850182611502565b50505050565b61157a816117b7565b82525050565b611589816117b7565b82525050565b60006060820190506115a46000830186611419565b6115b16020830185611580565b6115be6040830184611511565b949350505050565b60006060820190506115db6000830186611437565b6115e86020830185611437565b6115f56040830184611580565b949350505050565b600060a0820190506116126000830188611437565b61161f6020830187611437565b61162c6040830186611580565b6116396060830185611580565b6116466080830184611580565b9695505050505050565b600060c0820190506116656000830189611437565b6116726020830188611437565b61167f6040830187611580565b61168c6060830186611580565b6116996080830185611580565b6116a660a0830184611580565b979650505050505050565b600060208201905081810360008301526116cb8184611446565b905092915050565b600060208201905081810360008301526116ed81846114a4565b905092915050565b6000819050602082019050919050565b6000819050602082019050919050565b600081519050919050565b600081519050919050565b6000602082019050919050565b6000602082019050919050565b600082825260208201905092915050565b600082825260208201905092915050565b600061177282611797565b9050919050565b600061178482611797565b9050919050565b60008115159050919050565b600073ffffffffffffffffffffffffffffffffffffffff82169050919050565b6000819050919050565b60006117cc826117f7565b9050919050565b60006117de826117e5565b9050919050565b60006117f082611797565b9050919050565b600061180282611809565b9050919050565b600061181482611797565b9050919050565b61182481611767565b811461182f57600080fd5b50565b61183b81611779565b811461184657600080fd5b50565b611852816117b7565b811461185d57600080fd5b5056fe60806040526000600660006101000a81548160ff02191690831515021790555034801561002b57600080fd5b506104888061003b6000396000f3fe608060405234801561001057600080fd5b506004361061009e5760003560e01c8063aad3ff6b11610066578063aad3ff6b146101bd578063b05f04d314610249578063bcead63e14610267578063c392f766146102b1578063d321fe29146102cf5761009e565b80631cb0c3e7146100a35780631f741c7a146100ed5780637df1f1b91461010b5780639861f3e514610155578063aa8c217c1461019f575b600080fd5b6100ab6102ed565b604051808273ffffffffffffffffffffffffffffffffffffffff1673ffffffffffffffffffffffffffffffffffffffff16815260200191505060405180910390f35b6100f5610316565b6040518082815260200191505060405180910390f35b61011361031c565b604051808273ffffffffffffffffffffffffffffffffffffffff1673ffffffffffffffffffffffffffffffffffffffff16815260200191505060405180910390f35b61015d610341565b604051808273ffffffffffffffffffffffffffffffffffffffff1673ffffffffffffffffffffffffffffffffffffffff16815260200191505060405180910390f35b6101a761036b565b6040518082815260200191505060405180910390f35b610247600480360360c08110156101d357600080fd5b81019080803573ffffffffffffffffffffffffffffffffffffffff169060200190929190803573ffffffffffffffffffffffffffffffffffffffff16906020019092919080359060200190929190803590602001909291908035906020019092919080359060200190929190505050610371565b005b610251610416565b6040518082815260200191505060405180910390f35b61026f61041c565b604051808273ffffffffffffffffffffffffffffffffffffffff1673ffffffffffffffffffffffffffffffffffffffff16815260200191505060405180910390f35b6102b9610442565b6040518082815260200191505060405180910390f35b6102d7610448565b6040518082815260200191505060405180910390f35b60008060009054906101000a900473ffffffffffffffffffffffffffffffffffffffff16905090565b60045481565b6000809054906101000a900473ffffffffffffffffffffffffffffffffffffffff1681565b6000600160009054906101000a900473ffffffffffffffffffffffffffffffffffffffff16905090565b60025481565b856000806101000a81548173ffffffffffffffffffffffffffffffffffffffff021916908373ffffffffffffffffffffffffffffffffffffffff16021790555084600160006101000a81548173ffffffffffffffffffffffffffffffffffffffff021916908373ffffffffffffffffffffffffffffffffffffffff16021790555083600281905550826003819055508160048190555080600581905550505050505050565b60055481565b600160009054906101000a900473ffffffffffffffffffffffffffffffffffffffff1681565b60035481565b600060025490509056fea2646970667358221220ff74227b80237b4f110af2de34fa131fee3581f737a74660b3a2e242ac61584364736f6c63430006000033a264697066735822122076f1f091a37445a69f136fc8ca9c78530fb3a880c8af8637b52b0ff2630f492d64736f6c6343000600003360806040526000600660006101000a81548160ff02191690831515021790555034801561002b57600080fd5b506104888061003b6000396000f3fe608060405234801561001057600080fd5b506004361061009e5760003560e01c8063aad3ff6b11610066578063aad3ff6b146101bd578063b05f04d314610249578063bcead63e14610267578063c392f766146102b1578063d321fe29146102cf5761009e565b80631cb0c3e7146100a35780631f741c7a146100ed5780637df1f1b91461010b5780639861f3e514610155578063aa8c217c1461019f575b600080fd5b6100ab6102ed565b604051808273ffffffffffffffffffffffffffffffffffffffff1673ffffffffffffffffffffffffffffffffffffffff16815260200191505060405180910390f35b6100f5610316565b6040518082815260200191505060405180910390f35b61011361031c565b604051808273ffffffffffffffffffffffffffffffffffffffff1673ffffffffffffffffffffffffffffffffffffffff16815260200191505060405180910390f35b61015d610341565b604051808273ffffffffffffffffffffffffffffffffffffffff1673ffffffffffffffffffffffffffffffffffffffff16815260200191505060405180910390f35b6101a761036b565b6040518082815260200191505060405180910390f35b610247600480360360c08110156101d357600080fd5b81019080803573ffffffffffffffffffffffffffffffffffffffff169060200190929190803573ffffffffffffffffffffffffffffffffffffffff16906020019092919080359060200190929190803590602001909291908035906020019092919080359060200190929190505050610371565b005b610251610416565b6040518082815260200191505060405180910390f35b61026f61041c565b604051808273ffffffffffffffffffffffffffffffffffffffff1673ffffffffffffffffffffffffffffffffffffffff16815260200191505060405180910390f35b6102b9610442565b6040518082815260200191505060405180910390f35b6102d7610448565b6040518082815260200191505060405180910390f35b60008060009054906101000a900473ffffffffffffffffffffffffffffffffffffffff16905090565b60045481565b6000809054906101000a900473ffffffffffffffffffffffffffffffffffffffff1681565b6000600160009054906101000a900473ffffffffffffffffffffffffffffffffffffffff16905090565b60025481565b856000806101000a81548173ffffffffffffffffffffffffffffffffffffffff021916908373ffffffffffffffffffffffffffffffffffffffff16021790555084600160006101000a81548173ffffffffffffffffffffffffffffffffffffffff021916908373ffffffffffffffffffffffffffffffffffffffff16021790555083600281905550826003819055508160048190555080600581905550505050505050565b60055481565b600160009054906101000a900473ffffffffffffffffffffffffffffffffffffffff1681565b60035481565b600060025490509056fea2646970667358221220ff74227b80237b4f110af2de34fa131fee3581f737a74660b3a2e242ac61584364736f6c63430006000033",
  "source": "pragma solidity >=0.4.22 <0.9.0;\npragma experimental ABIEncoderV2;\n\nimport \"./Credit.sol\";\n\ncontract Exchange {\n    struct User {\n        address payable _address;\n        uint256 balance;\n        bool hasCredit;\n    }\n\n    // maps address of a user to the other addresses they owe money\n    // mapping(address => address[]) owesMoneyTo;\n    mapping(address => User) userMapping;\n    User[] userArray;\n    Credit[] creditArray;\n\n    constructor() public {\n        address payable user1 = 0xC6CB3865420875B759c1168cB12a12D1a994fcb5;\n        address payable user2 = 0x87acE434aa3e78E8E511F81aFbbB23bb8b3CB842;\n        address payable user3 = 0x20Dde2B1AA9776Ac7d48a9B37d87e3f84c85b54D;\n\n        createUser(100, user1);\n        createUser(50, user2);\n        createUser(75, user3);\n\n        createCredit(user1, user2, 20, 1, block.timestamp + 10000);\n        createCredit(user2, user3, 15, 2, block.timestamp + 20000);\n    }\n\n    event UserCreated(address _address, uint256 balance, bool hasCredit);\n\n    event LogTransfer(address borrower, address lender, uint256 amt);\n\n    event CreditCreated(\n        address borrower,\n        address lender,\n        uint256 amount,\n        uint256 interest,\n        uint256 dateCreated\n    );\n\n    function removeFromCreditArr(uint index) internal {\n        require(index < creditArray.length);\n        creditArray[index] = creditArray[creditArray.length-1];\n        creditArray.pop();\n    }\n\n    function createUser(uint256 _balance, address payable _address) public {\n        User memory tempUser = User(_address, _balance, false);\n        userMapping[_address] = tempUser;\n        userArray.push(tempUser);\n        emit UserCreated(_address, _balance, false);\n    }\n\n    function createUser(uint256 _balance) public {\n        address payable sender = payable(msg.sender);\n        User memory tempUser = User(sender, _balance, false);\n        userMapping[msg.sender] = tempUser;\n        userArray.push(tempUser);\n        emit UserCreated(msg.sender, _balance, false);\n    }\n\n    function createCredit(\n        address borrower,\n        address lender,\n        uint256 amount,\n        uint256 interest,\n        uint256 repaymentDate\n    ) public {\n        User memory borrowerUser = userMapping[borrower];\n        User memory lenderUser = userMapping[lender];\n\n        require(borrowerUser.hasCredit == false);\n        require(lenderUser.balance >= amount);\n\n        uint256 currentDate = block.timestamp;\n\n        Credit credit = new Credit();\n        credit.initializeCredit(\n            borrower,\n            lender,\n            amount,\n            interest,\n            currentDate,\n            repaymentDate\n        );\n        creditArray.push(credit);\n\n        emit CreditCreated(borrower, lender, amount, interest, currentDate);\n\n        transfer(borrower, lender, amount);\n    }\n\n    // needs to repay in full, no installments\n    // havent implemented interest functionality yet. just repaying in full\n    function repay(address borrower, address lender) public {\n        User memory borrowerUser = userMapping[borrower];\n\n        require(borrowerUser.hasCredit == true);\n\n        Credit credit;\n        bool foundInCreditArray = false;\n        uint index = 0;\n        Credit tempCredit;\n        // uint arraySize = sizeof(creditArray) / sizeof(creditArray[0]);\n\n        for (uint i=0; i < creditArray.length; i++) {\n            tempCredit = creditArray[i];\n            if (tempCredit.getBorrower() == borrower && tempCredit.getLender() == lender) {\n                credit = creditArray[i];\n                foundInCreditArray = true;\n                index = i;\n                break;\n            }\n        }\n\n        require(foundInCreditArray == true);\n        require(borrowerUser.balance >= credit.getAmount());\n\n        transfer(borrower, lender, credit.getAmount());\n        removeFromCreditArr(index);\n    }\n\n    // transfer funds\n    function transfer(\n        address _sender,\n        address _receiver,\n        uint256 amt\n    ) private {\n        User memory sender = userMapping[_sender];\n        User memory receiver = userMapping[_receiver];\n\n        receiver.balance -= amt;\n\n        sender.balance += amt;\n        sender.hasCredit = true;\n\n        userMapping[_sender] = sender;\n        userMapping[_receiver] = receiver;\n\n        emit LogTransfer(_sender, _receiver, amt);\n    }\n\n    function getCreditArray() public view returns(Credit[] memory) {\n        return creditArray;\n    }\n\n    function getUsers() public view returns (User[] memory) {\n        return userArray;\n    }\n}\n",
  "sourcePath": "/Users/palaashkolhe/VSCode Projects/DeFi Lending and Borrowing/solidity-server/contracts/Exchange.sol",
  "compiler": {
    "name": "solc",
    "version": "0.6.0+commit.26b70077.Emscripten.clang"
  },
  "schemaVersion": "3.4.11",
  "updatedAt": "2022-12-13T03:08:33.462Z",
  "networkType": "ethereum",
  "devdoc": {
    "methods": {}
  },
  "userdoc": {
    "methods": {}
  }
}