{
  "contractName": "Exchange",
  "abi": [
    {
      "inputs": [],
      "stateMutability": "nonpayable",
      "type": "constructor"
    },
    {
      "anonymous": false,
      "inputs": [
        {
          "indexed": false,
          "internalType": "address",
          "name": "borrower",
          "type": "address"
        },
        {
          "indexed": false,
          "internalType": "address",
          "name": "lender",
          "type": "address"
        },
        {
          "indexed": false,
          "internalType": "uint256",
          "name": "amount",
          "type": "uint256"
        },
        {
          "indexed": false,
          "internalType": "uint256",
          "name": "interest",
          "type": "uint256"
        },
        {
          "indexed": false,
          "internalType": "uint256",
          "name": "dateCreated",
          "type": "uint256"
        }
      ],
      "name": "CreditCreated",
      "type": "event"
    },
    {
      "anonymous": false,
      "inputs": [
        {
          "indexed": false,
          "internalType": "address",
          "name": "borrower",
          "type": "address"
        },
        {
          "indexed": false,
          "internalType": "address",
          "name": "lender",
          "type": "address"
        },
        {
          "indexed": false,
          "internalType": "uint256",
          "name": "amt",
          "type": "uint256"
        }
      ],
      "name": "LogTransfer",
      "type": "event"
    },
    {
      "anonymous": false,
      "inputs": [
        {
          "indexed": false,
          "internalType": "address",
          "name": "_address",
          "type": "address"
        },
        {
          "indexed": false,
          "internalType": "uint256",
          "name": "balance",
          "type": "uint256"
        },
        {
          "indexed": false,
          "internalType": "bool",
          "name": "hasCredit",
          "type": "bool"
        }
      ],
      "name": "UserCreated",
      "type": "event"
    },
    {
      "inputs": [
        {
          "internalType": "uint256",
          "name": "_balance",
          "type": "uint256"
        },
        {
          "internalType": "address payable",
          "name": "_address",
          "type": "address"
        }
      ],
      "name": "createUser",
      "outputs": [],
      "stateMutability": "nonpayable",
      "type": "function"
    },
    {
      "inputs": [
        {
          "internalType": "uint256",
          "name": "_balance",
          "type": "uint256"
        }
      ],
      "name": "createUser",
      "outputs": [],
      "stateMutability": "nonpayable",
      "type": "function"
    },
    {
      "inputs": [
        {
          "internalType": "address",
          "name": "borrower",
          "type": "address"
        },
        {
          "internalType": "address",
          "name": "lender",
          "type": "address"
        },
        {
          "internalType": "uint256",
          "name": "amount",
          "type": "uint256"
        },
        {
          "internalType": "uint256",
          "name": "interest",
          "type": "uint256"
        },
        {
          "internalType": "uint256",
          "name": "repaymentDate",
          "type": "uint256"
        }
      ],
      "name": "createCredit",
      "outputs": [],
      "stateMutability": "nonpayable",
      "type": "function"
    },
    {
      "inputs": [
        {
          "internalType": "address",
          "name": "borrower",
          "type": "address"
        },
        {
          "internalType": "address",
          "name": "lender",
          "type": "address"
        }
      ],
      "name": "repay",
      "outputs": [],
      "stateMutability": "nonpayable",
      "type": "function"
    },
    {
      "inputs": [],
      "name": "getCreditArray",
      "outputs": [
        {
          "internalType": "contract Credit[]",
          "name": "",
          "type": "address[]"
        }
      ],
      "stateMutability": "view",
      "type": "function",
      "constant": true
    },
    {
      "inputs": [
        {
          "internalType": "address",
          "name": "cAddress",
          "type": "address"
        }
      ],
      "name": "getCredit",
      "outputs": [
        {
          "internalType": "contract Credit",
          "name": "",
          "type": "address"
        }
      ],
      "stateMutability": "view",
      "type": "function",
      "constant": true
    },
    {
      "inputs": [],
      "name": "getUsers",
      "outputs": [
        {
          "components": [
            {
              "internalType": "address payable",
              "name": "_address",
              "type": "address"
            },
            {
              "internalType": "uint256",
              "name": "balance",
              "type": "uint256"
            },
            {
              "internalType": "bool",
              "name": "hasCredit",
              "type": "bool"
            }
          ],
          "internalType": "struct Exchange.User[]",
          "name": "",
          "type": "tuple[]"
        }
      ],
      "stateMutability": "view",
      "type": "function",
      "constant": true
    }
  ],
  "bytecode": "0x60806040523480156200001157600080fd5b50600073146cff2d2ea61cec81066cd3c40a9565cc70c3da9050600073c54f7bf6b56c46c53d624e1269a293af0aee57dd90506000735d8d2f6fc8fddf68e8961e027b2f3412cc21d751905062000070606484620000d560201b60201c565b62000083603283620000d560201b60201c565b62000096604b82620000d560201b60201c565b620000b18383601460016127104201620002aa60201b60201c565b620000cc8282600f6002614e204201620002aa60201b60201c565b50505062000bb2565b620000df6200095d565b60405180606001604052808373ffffffffffffffffffffffffffffffffffffffff168152602001848152602001600015158152509050806000808473ffffffffffffffffffffffffffffffffffffffff1673ffffffffffffffffffffffffffffffffffffffff16815260200190815260200160002060008201518160000160006101000a81548173ffffffffffffffffffffffffffffffffffffffff021916908373ffffffffffffffffffffffffffffffffffffffff1602179055506020820151816001015560408201518160020160006101000a81548160ff021916908315150217905550905050600181908060018154018082558091505060019003906000526020600020906003020160009091909190915060008201518160000160006101000a81548173ffffffffffffffffffffffffffffffffffffffff021916908373ffffffffffffffffffffffffffffffffffffffff1602179055506020820151816001015560408201518160020160006101000a81548160ff02191690831515021790555050507f168d1dc6cbc5a8412ac5349daf96c1b6f5f68e47a5a3c0d0a6d35666e109147c828460006040516200029d93929190620009e8565b60405180910390a1505050565b620002b46200095d565b6000808773ffffffffffffffffffffffffffffffffffffffff1673ffffffffffffffffffffffffffffffffffffffff1681526020019081526020016000206040518060600160405290816000820160009054906101000a900473ffffffffffffffffffffffffffffffffffffffff1673ffffffffffffffffffffffffffffffffffffffff1673ffffffffffffffffffffffffffffffffffffffff168152602001600182015481526020016002820160009054906101000a900460ff1615151515815250509050620003846200095d565b6000808773ffffffffffffffffffffffffffffffffffffffff1673ffffffffffffffffffffffffffffffffffffffff1681526020019081526020016000206040518060600160405290816000820160009054906101000a900473ffffffffffffffffffffffffffffffffffffffff1673ffffffffffffffffffffffffffffffffffffffff1673ffffffffffffffffffffffffffffffffffffffff168152602001600182015481526020016002820160009054906101000a900460ff16151515158152505090506000151582604001511515146200046057600080fd5b84816020015110156200047257600080fd5b60004290506000604051620004879062000996565b604051809103906000f080158015620004a4573d6000803e3d6000fd5b5090508073ffffffffffffffffffffffffffffffffffffffff1663aad3ff6b8a8a8a8a878b6040518763ffffffff1660e01b8152600401620004ec9695949392919062000abf565b600060405180830381600087803b1580156200050757600080fd5b505af11580156200051c573d6000803e3d6000fd5b505050506002819080600181540180825580915050600190039060005260206000200160009091909190916101000a81548173ffffffffffffffffffffffffffffffffffffffff021916908373ffffffffffffffffffffffffffffffffffffffff1602179055507f38f6fd01ae8c8efcf8722b2c621f449c460264ae1f86d2b159dec70cac1a3ab28989898986604051620005bc95949392919062000a62565b60405180910390a1620005d7898989620005e260201b60201c565b505050505050505050565b620005ec6200095d565b6000808573ffffffffffffffffffffffffffffffffffffffff1673ffffffffffffffffffffffffffffffffffffffff1681526020019081526020016000206040518060600160405290816000820160009054906101000a900473ffffffffffffffffffffffffffffffffffffffff1673ffffffffffffffffffffffffffffffffffffffff1673ffffffffffffffffffffffffffffffffffffffff168152602001600182015481526020016002820160009054906101000a900460ff1615151515815250509050620006bc6200095d565b6000808573ffffffffffffffffffffffffffffffffffffffff1673ffffffffffffffffffffffffffffffffffffffff1681526020019081526020016000206040518060600160405290816000820160009054906101000a900473ffffffffffffffffffffffffffffffffffffffff1673ffffffffffffffffffffffffffffffffffffffff1673ffffffffffffffffffffffffffffffffffffffff168152602001600182015481526020016002820160009054906101000a900460ff161515151581525050905082816020018181510391508181525050828260200181815101915081815250506001826040019015159081151581525050816000808773ffffffffffffffffffffffffffffffffffffffff1673ffffffffffffffffffffffffffffffffffffffff16815260200190815260200160002060008201518160000160006101000a81548173ffffffffffffffffffffffffffffffffffffffff021916908373ffffffffffffffffffffffffffffffffffffffff1602179055506020820151816001015560408201518160020160006101000a81548160ff021916908315150217905550905050806000808673ffffffffffffffffffffffffffffffffffffffff1673ffffffffffffffffffffffffffffffffffffffff16815260200190815260200160002060008201518160000160006101000a81548173ffffffffffffffffffffffffffffffffffffffff021916908373ffffffffffffffffffffffffffffffffffffffff1602179055506020820151816001015560408201518160020160006101000a81548160ff0219169083151502179055509050507f0a85107a334eae0d22d21cdf13af0f8e8125039ec60baaa843d2c4c5b06801748585856040516200094e9392919062000a25565b60405180910390a15050505050565b6040518060600160405280600073ffffffffffffffffffffffffffffffffffffffff168152602001600081526020016000151581525090565b6104c38062002a8d83390190565b620009af8162000b76565b82525050565b620009c08162000b2c565b82525050565b620009d18162000b40565b82525050565b620009e28162000b6c565b82525050565b6000606082019050620009ff6000830186620009a4565b62000a0e6020830185620009d7565b62000a1d6040830184620009c6565b949350505050565b600060608201905062000a3c6000830186620009b5565b62000a4b6020830185620009b5565b62000a5a6040830184620009d7565b949350505050565b600060a08201905062000a796000830188620009b5565b62000a886020830187620009b5565b62000a976040830186620009d7565b62000aa66060830185620009d7565b62000ab56080830184620009d7565b9695505050505050565b600060c08201905062000ad66000830189620009b5565b62000ae56020830188620009b5565b62000af46040830187620009d7565b62000b036060830186620009d7565b62000b126080830185620009d7565b62000b2160a0830184620009d7565b979650505050505050565b600062000b398262000b4c565b9050919050565b60008115159050919050565b600073ffffffffffffffffffffffffffffffffffffffff82169050919050565b6000819050919050565b600062000b838262000b8a565b9050919050565b600062000b978262000b9e565b9050919050565b600062000bab8262000b4c565b9050919050565b611ecb8062000bc26000396000f3fe608060405234801561001057600080fd5b506004361061007c5760003560e01c80636ed671e81161005b5780636ed671e8146100ed5780639881086b14610109578063b854b00f14610125578063ffbdff66146101415761007c565b8062ce8e3e1461008157806357344e6f1461009f5780635b87ae0f146100cf575b600080fd5b61008961015d565b604051610096919061182a565b60405180910390f35b6100b960048036036100b4919081019061139e565b610237565b6040516100c6919061184c565b60405180910390f35b6100d761030b565b6040516100e49190611808565b60405180910390f35b610107600480360361010291908101906113f0565b610399565b005b610123600480360361011e919081019061142c565b6107c9565b005b61013f600480360361013a91908101906114f5565b610aea565b005b61015b600480360361015691908101906114a3565b610cbb565b005b60606001805480602002602001604051908101604052809291908181526020016000905b8282101561022e57838290600052602060002090600302016040518060600160405290816000820160009054906101000a900473ffffffffffffffffffffffffffffffffffffffff1673ffffffffffffffffffffffffffffffffffffffff1673ffffffffffffffffffffffffffffffffffffffff168152602001600182015481526020016002820160009054906101000a900460ff16151515158152505081526020019060010190610181565b50505050905090565b600080600090505b600280549050811015610304578273ffffffffffffffffffffffffffffffffffffffff166002828154811061027057fe5b9060005260206000200160009054906101000a900473ffffffffffffffffffffffffffffffffffffffff1673ffffffffffffffffffffffffffffffffffffffff1614156102f757600281815481106102c457fe5b9060005260206000200160009054906101000a900473ffffffffffffffffffffffffffffffffffffffff16915050610306565b808060010191505061023f565b505b919050565b6060600280548060200260200160405190810160405280929190818152602001828054801561038f57602002820191906000526020600020905b8160009054906101000a900473ffffffffffffffffffffffffffffffffffffffff1673ffffffffffffffffffffffffffffffffffffffff1681526020019060010190808311610345575b5050505050905090565b6103a16112ef565b6000808473ffffffffffffffffffffffffffffffffffffffff1673ffffffffffffffffffffffffffffffffffffffff1681526020019081526020016000206040518060600160405290816000820160009054906101000a900473ffffffffffffffffffffffffffffffffffffffff1673ffffffffffffffffffffffffffffffffffffffff1673ffffffffffffffffffffffffffffffffffffffff168152602001600182015481526020016002820160009054906101000a900460ff161515151581525050905060011515816040015115151461047c57600080fd5b600080600090506000809050600080600090505b60028054905081101561068f57600281815481106104aa57fe5b9060005260206000200160009054906101000a900473ffffffffffffffffffffffffffffffffffffffff1691508773ffffffffffffffffffffffffffffffffffffffff168273ffffffffffffffffffffffffffffffffffffffff16631cb0c3e76040518163ffffffff1660e01b815260040160206040518083038186803b15801561053457600080fd5b505afa158015610548573d6000803e3d6000fd5b505050506040513d601f19601f8201168201806040525061056c91908101906113c7565b73ffffffffffffffffffffffffffffffffffffffff1614801561063757508673ffffffffffffffffffffffffffffffffffffffff168273ffffffffffffffffffffffffffffffffffffffff16639861f3e56040518163ffffffff1660e01b815260040160206040518083038186803b1580156105e757600080fd5b505afa1580156105fb573d6000803e3d6000fd5b505050506040513d601f19601f8201168201806040525061061f91908101906113c7565b73ffffffffffffffffffffffffffffffffffffffff16145b15610682576002818154811061064957fe5b9060005260206000200160009054906101000a900473ffffffffffffffffffffffffffffffffffffffff1694506001935080925061068f565b8080600101915050610490565b5060011515831515146106a157600080fd5b8373ffffffffffffffffffffffffffffffffffffffff1663d321fe296040518163ffffffff1660e01b815260040160206040518083038186803b1580156106e757600080fd5b505afa1580156106fb573d6000803e3d6000fd5b505050506040513d601f19601f8201168201806040525061071f91908101906114cc565b8560200151101561072f57600080fd5b6107b787878673ffffffffffffffffffffffffffffffffffffffff1663d321fe296040518163ffffffff1660e01b815260040160206040518083038186803b15801561077a57600080fd5b505afa15801561078e573d6000803e3d6000fd5b505050506040513d601f19601f820116820180604052506107b291908101906114cc565b610e91565b6107c082611206565b50505050505050565b6107d16112ef565b6000808773ffffffffffffffffffffffffffffffffffffffff1673ffffffffffffffffffffffffffffffffffffffff1681526020019081526020016000206040518060600160405290816000820160009054906101000a900473ffffffffffffffffffffffffffffffffffffffff1673ffffffffffffffffffffffffffffffffffffffff1673ffffffffffffffffffffffffffffffffffffffff168152602001600182015481526020016002820160009054906101000a900460ff161515151581525050905061089f6112ef565b6000808773ffffffffffffffffffffffffffffffffffffffff1673ffffffffffffffffffffffffffffffffffffffff1681526020019081526020016000206040518060600160405290816000820160009054906101000a900473ffffffffffffffffffffffffffffffffffffffff1673ffffffffffffffffffffffffffffffffffffffff1673ffffffffffffffffffffffffffffffffffffffff168152602001600182015481526020016002820160009054906101000a900460ff161515151581525050905060001515826040015115151461097a57600080fd5b848160200151101561098b57600080fd5b6000429050600060405161099e90611328565b604051809103906000f0801580156109ba573d6000803e3d6000fd5b5090508073ffffffffffffffffffffffffffffffffffffffff1663aad3ff6b8a8a8a8a878b6040518763ffffffff1660e01b8152600401610a00969594939291906117a7565b600060405180830381600087803b158015610a1a57600080fd5b505af1158015610a2e573d6000803e3d6000fd5b505050506002819080600181540180825580915050600190039060005260206000200160009091909190916101000a81548173ffffffffffffffffffffffffffffffffffffffff021916908373ffffffffffffffffffffffffffffffffffffffff1602179055507f38f6fd01ae8c8efcf8722b2c621f449c460264ae1f86d2b159dec70cac1a3ab28989898986604051610acc959493929190611754565b60405180910390a1610adf898989610e91565b505050505050505050565b610af26112ef565b60405180606001604052808373ffffffffffffffffffffffffffffffffffffffff168152602001848152602001600015158152509050806000808473ffffffffffffffffffffffffffffffffffffffff1673ffffffffffffffffffffffffffffffffffffffff16815260200190815260200160002060008201518160000160006101000a81548173ffffffffffffffffffffffffffffffffffffffff021916908373ffffffffffffffffffffffffffffffffffffffff1602179055506020820151816001015560408201518160020160006101000a81548160ff021916908315150217905550905050600181908060018154018082558091505060019003906000526020600020906003020160009091909190915060008201518160000160006101000a81548173ffffffffffffffffffffffffffffffffffffffff021916908373ffffffffffffffffffffffffffffffffffffffff1602179055506020820151816001015560408201518160020160006101000a81548160ff02191690831515021790555050507f168d1dc6cbc5a8412ac5349daf96c1b6f5f68e47a5a3c0d0a6d35666e109147c82846000604051610cae939291906116e6565b60405180910390a1505050565b6000339050610cc86112ef565b60405180606001604052808373ffffffffffffffffffffffffffffffffffffffff168152602001848152602001600015158152509050806000803373ffffffffffffffffffffffffffffffffffffffff1673ffffffffffffffffffffffffffffffffffffffff16815260200190815260200160002060008201518160000160006101000a81548173ffffffffffffffffffffffffffffffffffffffff021916908373ffffffffffffffffffffffffffffffffffffffff1602179055506020820151816001015560408201518160020160006101000a81548160ff021916908315150217905550905050600181908060018154018082558091505060019003906000526020600020906003020160009091909190915060008201518160000160006101000a81548173ffffffffffffffffffffffffffffffffffffffff021916908373ffffffffffffffffffffffffffffffffffffffff1602179055506020820151816001015560408201518160020160006101000a81548160ff02191690831515021790555050507f168d1dc6cbc5a8412ac5349daf96c1b6f5f68e47a5a3c0d0a6d35666e109147c33846000604051610e84939291906116e6565b60405180910390a1505050565b610e996112ef565b6000808573ffffffffffffffffffffffffffffffffffffffff1673ffffffffffffffffffffffffffffffffffffffff1681526020019081526020016000206040518060600160405290816000820160009054906101000a900473ffffffffffffffffffffffffffffffffffffffff1673ffffffffffffffffffffffffffffffffffffffff1673ffffffffffffffffffffffffffffffffffffffff168152602001600182015481526020016002820160009054906101000a900460ff1615151515815250509050610f676112ef565b6000808573ffffffffffffffffffffffffffffffffffffffff1673ffffffffffffffffffffffffffffffffffffffff1681526020019081526020016000206040518060600160405290816000820160009054906101000a900473ffffffffffffffffffffffffffffffffffffffff1673ffffffffffffffffffffffffffffffffffffffff1673ffffffffffffffffffffffffffffffffffffffff168152602001600182015481526020016002820160009054906101000a900460ff161515151581525050905082816020018181510391508181525050828260200181815101915081815250506001826040019015159081151581525050816000808773ffffffffffffffffffffffffffffffffffffffff1673ffffffffffffffffffffffffffffffffffffffff16815260200190815260200160002060008201518160000160006101000a81548173ffffffffffffffffffffffffffffffffffffffff021916908373ffffffffffffffffffffffffffffffffffffffff1602179055506020820151816001015560408201518160020160006101000a81548160ff021916908315150217905550905050806000808673ffffffffffffffffffffffffffffffffffffffff1673ffffffffffffffffffffffffffffffffffffffff16815260200190815260200160002060008201518160000160006101000a81548173ffffffffffffffffffffffffffffffffffffffff021916908373ffffffffffffffffffffffffffffffffffffffff1602179055506020820151816001015560408201518160020160006101000a81548160ff0219169083151502179055509050507f0a85107a334eae0d22d21cdf13af0f8e8125039ec60baaa843d2c4c5b06801748585856040516111f79392919061171d565b60405180910390a15050505050565b600280549050811061121757600080fd5b60026001600280549050038154811061122c57fe5b9060005260206000200160009054906101000a900473ffffffffffffffffffffffffffffffffffffffff166002828154811061126457fe5b9060005260206000200160006101000a81548173ffffffffffffffffffffffffffffffffffffffff021916908373ffffffffffffffffffffffffffffffffffffffff16021790555060028054806112b757fe5b6001900381819060005260206000200160006101000a81549073ffffffffffffffffffffffffffffffffffffffff0219169055905550565b6040518060600160405280600073ffffffffffffffffffffffffffffffffffffffff168152602001600081526020016000151581525090565b6104c3806119d383390190565b6000813590506113448161198d565b92915050565b6000815190506113598161198d565b92915050565b60008135905061136e816119a4565b92915050565b600081359050611383816119bb565b92915050565b600081519050611398816119bb565b92915050565b6000602082840312156113b057600080fd5b60006113be84828501611335565b91505092915050565b6000602082840312156113d957600080fd5b60006113e78482850161134a565b91505092915050565b6000806040838503121561140357600080fd5b600061141185828601611335565b925050602061142285828601611335565b9150509250929050565b600080600080600060a0868803121561144457600080fd5b600061145288828901611335565b955050602061146388828901611335565b945050604061147488828901611374565b935050606061148588828901611374565b925050608061149688828901611374565b9150509295509295909350565b6000602082840312156114b557600080fd5b60006114c384828501611374565b91505092915050565b6000602082840312156114de57600080fd5b60006114ec84828501611389565b91505092915050565b6000806040838503121561150857600080fd5b600061151685828601611374565b92505060206115278582860161135f565b9150509250929050565b600061153d8383611668565b60208301905092915050565b60006115558383611686565b60608301905092915050565b61156a81611933565b82525050565b611579816118eb565b82525050565b611588816118d9565b82525050565b600061159982611887565b6115a381856118b7565b93506115ae83611867565b8060005b838110156115df5781516115c68882611531565b97506115d18361189d565b9250506001810190506115b2565b5085935050505092915050565b60006115f782611892565b61160181856118c8565b935061160c83611877565b8060005b8381101561163d5781516116248882611549565b975061162f836118aa565b925050600181019050611610565b5085935050505092915050565b611653816118fd565b82525050565b611662816118fd565b82525050565b61167181611945565b82525050565b61168081611945565b82525050565b60608201600082015161169c6000850182611570565b5060208201516116af60208501826116c8565b5060408201516116c2604085018261164a565b50505050565b6116d181611929565b82525050565b6116e081611929565b82525050565b60006060820190506116fb6000830186611561565b61170860208301856116d7565b6117156040830184611659565b949350505050565b6000606082019050611732600083018661157f565b61173f602083018561157f565b61174c60408301846116d7565b949350505050565b600060a082019050611769600083018861157f565b611776602083018761157f565b61178360408301866116d7565b61179060608301856116d7565b61179d60808301846116d7565b9695505050505050565b600060c0820190506117bc600083018961157f565b6117c9602083018861157f565b6117d660408301876116d7565b6117e360608301866116d7565b6117f060808301856116d7565b6117fd60a08301846116d7565b979650505050505050565b60006020820190508181036000830152611822818461158e565b905092915050565b6000602082019050818103600083015261184481846115ec565b905092915050565b60006020820190506118616000830184611677565b92915050565b6000819050602082019050919050565b6000819050602082019050919050565b600081519050919050565b600081519050919050565b6000602082019050919050565b6000602082019050919050565b600082825260208201905092915050565b600082825260208201905092915050565b60006118e482611909565b9050919050565b60006118f682611909565b9050919050565b60008115159050919050565b600073ffffffffffffffffffffffffffffffffffffffff82169050919050565b6000819050919050565b600061193e82611969565b9050919050565b600061195082611957565b9050919050565b600061196282611909565b9050919050565b60006119748261197b565b9050919050565b600061198682611909565b9050919050565b611996816118d9565b81146119a157600080fd5b50565b6119ad816118eb565b81146119b857600080fd5b50565b6119c481611929565b81146119cf57600080fd5b5056fe60806040526000600660006101000a81548160ff02191690831515021790555034801561002b57600080fd5b506104888061003b6000396000f3fe608060405234801561001057600080fd5b506004361061009e5760003560e01c8063aad3ff6b11610066578063aad3ff6b146101bd578063b05f04d314610249578063bcead63e14610267578063c392f766146102b1578063d321fe29146102cf5761009e565b80631cb0c3e7146100a35780631f741c7a146100ed5780637df1f1b91461010b5780639861f3e514610155578063aa8c217c1461019f575b600080fd5b6100ab6102ed565b604051808273ffffffffffffffffffffffffffffffffffffffff1673ffffffffffffffffffffffffffffffffffffffff16815260200191505060405180910390f35b6100f5610316565b6040518082815260200191505060405180910390f35b61011361031c565b604051808273ffffffffffffffffffffffffffffffffffffffff1673ffffffffffffffffffffffffffffffffffffffff16815260200191505060405180910390f35b61015d610341565b604051808273ffffffffffffffffffffffffffffffffffffffff1673ffffffffffffffffffffffffffffffffffffffff16815260200191505060405180910390f35b6101a761036b565b6040518082815260200191505060405180910390f35b610247600480360360c08110156101d357600080fd5b81019080803573ffffffffffffffffffffffffffffffffffffffff169060200190929190803573ffffffffffffffffffffffffffffffffffffffff16906020019092919080359060200190929190803590602001909291908035906020019092919080359060200190929190505050610371565b005b610251610416565b6040518082815260200191505060405180910390f35b61026f61041c565b604051808273ffffffffffffffffffffffffffffffffffffffff1673ffffffffffffffffffffffffffffffffffffffff16815260200191505060405180910390f35b6102b9610442565b6040518082815260200191505060405180910390f35b6102d7610448565b6040518082815260200191505060405180910390f35b60008060009054906101000a900473ffffffffffffffffffffffffffffffffffffffff16905090565b60045481565b6000809054906101000a900473ffffffffffffffffffffffffffffffffffffffff1681565b6000600160009054906101000a900473ffffffffffffffffffffffffffffffffffffffff16905090565b60025481565b856000806101000a81548173ffffffffffffffffffffffffffffffffffffffff021916908373ffffffffffffffffffffffffffffffffffffffff16021790555084600160006101000a81548173ffffffffffffffffffffffffffffffffffffffff021916908373ffffffffffffffffffffffffffffffffffffffff16021790555083600281905550826003819055508160048190555080600581905550505050505050565b60055481565b600160009054906101000a900473ffffffffffffffffffffffffffffffffffffffff1681565b60035481565b600060025490509056fea2646970667358221220ff74227b80237b4f110af2de34fa131fee3581f737a74660b3a2e242ac61584364736f6c63430006000033a2646970667358221220c5b0a87c4cf94a3fc17f8fd80bd4eb6e848a744b22c1bccf678b9f72ff7a99d564736f6c6343000600003360806040526000600660006101000a81548160ff02191690831515021790555034801561002b57600080fd5b506104888061003b6000396000f3fe608060405234801561001057600080fd5b506004361061009e5760003560e01c8063aad3ff6b11610066578063aad3ff6b146101bd578063b05f04d314610249578063bcead63e14610267578063c392f766146102b1578063d321fe29146102cf5761009e565b80631cb0c3e7146100a35780631f741c7a146100ed5780637df1f1b91461010b5780639861f3e514610155578063aa8c217c1461019f575b600080fd5b6100ab6102ed565b604051808273ffffffffffffffffffffffffffffffffffffffff1673ffffffffffffffffffffffffffffffffffffffff16815260200191505060405180910390f35b6100f5610316565b6040518082815260200191505060405180910390f35b61011361031c565b604051808273ffffffffffffffffffffffffffffffffffffffff1673ffffffffffffffffffffffffffffffffffffffff16815260200191505060405180910390f35b61015d610341565b604051808273ffffffffffffffffffffffffffffffffffffffff1673ffffffffffffffffffffffffffffffffffffffff16815260200191505060405180910390f35b6101a761036b565b6040518082815260200191505060405180910390f35b610247600480360360c08110156101d357600080fd5b81019080803573ffffffffffffffffffffffffffffffffffffffff169060200190929190803573ffffffffffffffffffffffffffffffffffffffff16906020019092919080359060200190929190803590602001909291908035906020019092919080359060200190929190505050610371565b005b610251610416565b6040518082815260200191505060405180910390f35b61026f61041c565b604051808273ffffffffffffffffffffffffffffffffffffffff1673ffffffffffffffffffffffffffffffffffffffff16815260200191505060405180910390f35b6102b9610442565b6040518082815260200191505060405180910390f35b6102d7610448565b6040518082815260200191505060405180910390f35b60008060009054906101000a900473ffffffffffffffffffffffffffffffffffffffff16905090565b60045481565b6000809054906101000a900473ffffffffffffffffffffffffffffffffffffffff1681565b6000600160009054906101000a900473ffffffffffffffffffffffffffffffffffffffff16905090565b60025481565b856000806101000a81548173ffffffffffffffffffffffffffffffffffffffff021916908373ffffffffffffffffffffffffffffffffffffffff16021790555084600160006101000a81548173ffffffffffffffffffffffffffffffffffffffff021916908373ffffffffffffffffffffffffffffffffffffffff16021790555083600281905550826003819055508160048190555080600581905550505050505050565b60055481565b600160009054906101000a900473ffffffffffffffffffffffffffffffffffffffff1681565b60035481565b600060025490509056fea2646970667358221220ff74227b80237b4f110af2de34fa131fee3581f737a74660b3a2e242ac61584364736f6c63430006000033",
  "source": "pragma solidity >=0.4.22 <0.9.0;\npragma experimental ABIEncoderV2;\n\nimport \"./Credit.sol\";\n\ncontract Exchange {\n    struct User {\n        address payable _address;\n        uint256 balance;\n        bool hasCredit;\n    }\n\n    // maps address of a user to the other addresses they owe money\n    // mapping(address => address[]) owesMoneyTo;\n    mapping(address => User) userMapping;\n    User[] userArray;\n    Credit[] creditArray;\n\n    constructor() public {\n        address payable user1 = 0x146cfF2D2Ea61CeC81066cd3c40A9565CC70c3dA;\n        address payable user2 = 0xC54F7Bf6B56c46C53d624e1269a293AF0aEe57dd;\n        address payable user3 = 0x5d8D2f6fc8FDdF68e8961e027B2f3412cc21D751;\n\n        createUser(100, user1);\n        createUser(50, user2);\n        createUser(75, user3);\n\n        createCredit(user1, user2, 20, 1, block.timestamp + 10000);\n        createCredit(user2, user3, 15, 2, block.timestamp + 20000);\n    }\n\n    event UserCreated(address _address, uint256 balance, bool hasCredit);\n\n    event LogTransfer(address borrower, address lender, uint256 amt);\n\n    event CreditCreated(\n        address borrower,\n        address lender,\n        uint256 amount,\n        uint256 interest,\n        uint256 dateCreated\n    );\n\n    function removeFromCreditArr(uint index) internal {\n        require(index < creditArray.length);\n        creditArray[index] = creditArray[creditArray.length-1];\n        creditArray.pop();\n    }\n\n    function createUser(uint256 _balance, address payable _address) public {\n        User memory tempUser = User(_address, _balance, false);\n        userMapping[_address] = tempUser;\n        userArray.push(tempUser);\n        emit UserCreated(_address, _balance, false);\n    }\n\n    function createUser(uint256 _balance) public {\n        address payable sender = payable(msg.sender);\n        User memory tempUser = User(sender, _balance, false);\n        userMapping[msg.sender] = tempUser;\n        userArray.push(tempUser);\n        emit UserCreated(msg.sender, _balance, false);\n    }\n\n    function createCredit(\n        address borrower,\n        address lender,\n        uint256 amount,\n        uint256 interest,\n        uint256 repaymentDate\n    ) public {\n        User memory borrowerUser = userMapping[borrower];\n        User memory lenderUser = userMapping[lender];\n\n        require(borrowerUser.hasCredit == false);\n        require(lenderUser.balance >= amount);\n\n        uint256 currentDate = block.timestamp;\n\n        Credit credit = new Credit();\n        credit.initializeCredit(\n            borrower,\n            lender,\n            amount,\n            interest,\n            currentDate,\n            repaymentDate\n        );\n        creditArray.push(credit);\n\n        emit CreditCreated(borrower, lender, amount, interest, currentDate);\n\n        transfer(borrower, lender, amount);\n    }\n\n    // needs to repay in full, no installments\n    // havent implemented interest functionality yet. just repaying in full\n    function repay(address borrower, address lender) public {\n        User memory borrowerUser = userMapping[borrower];\n\n        require(borrowerUser.hasCredit == true);\n\n        Credit credit;\n        bool foundInCreditArray = false;\n        uint index = 0;\n        Credit tempCredit;\n        // uint arraySize = sizeof(creditArray) / sizeof(creditArray[0]);\n\n        for (uint i=0; i < creditArray.length; i++) {\n            tempCredit = creditArray[i];\n            if (tempCredit.getBorrower() == borrower && tempCredit.getLender() == lender) {\n                credit = creditArray[i];\n                foundInCreditArray = true;\n                index = i;\n                break;\n            }\n        }\n\n        require(foundInCreditArray == true);\n        require(borrowerUser.balance >= credit.getAmount());\n\n        transfer(borrower, lender, credit.getAmount());\n        removeFromCreditArr(index);\n    }\n\n    // transfer funds\n    function transfer(\n        address _sender,\n        address _receiver,\n        uint256 amt\n    ) private {\n        User memory sender = userMapping[_sender];\n        User memory receiver = userMapping[_receiver];\n\n        receiver.balance -= amt;\n\n        sender.balance += amt;\n        sender.hasCredit = true;\n\n        userMapping[_sender] = sender;\n        userMapping[_receiver] = receiver;\n\n        emit LogTransfer(_sender, _receiver, amt);\n    }\n\n    function getCreditArray() public view returns(Credit[] memory) {\n        return creditArray;\n    }\n\n    function getCredit(address cAddress) public view returns (Credit) {\n        for (uint i=0; i < creditArray.length; i++) {\n            if (address(creditArray[i]) == cAddress) {\n                return creditArray[i];\n            }\n        }\n    }\n\n    function getUsers() public view returns (User[] memory) {\n        return userArray;\n    }\n}\n",
  "sourcePath": "/Users/palaashkolhe/VSCode Projects/DeFi Lending and Borrowing/solidity-server/contracts/Exchange.sol",
  "compiler": {
    "name": "solc",
    "version": "0.6.0+commit.26b70077.Emscripten.clang"
  },
  "schemaVersion": "3.4.11",
  "updatedAt": "2022-12-11T21:26:13.874Z",
  "networkType": "ethereum",
  "devdoc": {
    "methods": {}
  },
  "userdoc": {
    "methods": {}
  }
}